{
    "contractName": "IDO",
    "abi": [
        {
            "inputs": [
                {
                    "internalType": "string",
                    "name": "name_",
                    "type": "string"
                },
                {
                    "internalType": "string",
                    "name": "symbol_",
                    "type": "string"
                }
            ],
            "stateMutability": "nonpayable",
            "type": "constructor"
        },
        {
            "anonymous": false,
            "inputs": [
                {
                    "indexed": true,
                    "internalType": "address",
                    "name": "owner",
                    "type": "address"
                },
                {
                    "indexed": true,
                    "internalType": "address",
                    "name": "spender",
                    "type": "address"
                },
                {
                    "indexed": false,
                    "internalType": "uint256",
                    "name": "value",
                    "type": "uint256"
                }
            ],
            "name": "Approval",
            "type": "event"
        },
        {
            "anonymous": false,
            "inputs": [
                {
                    "indexed": true,
                    "internalType": "address",
                    "name": "previousOwner",
                    "type": "address"
                },
                {
                    "indexed": true,
                    "internalType": "address",
                    "name": "newOwner",
                    "type": "address"
                }
            ],
            "name": "OwnershipTransferred",
            "type": "event"
        },
        {
            "anonymous": false,
            "inputs": [
                {
                    "indexed": false,
                    "internalType": "address",
                    "name": "account",
                    "type": "address"
                }
            ],
            "name": "Paused",
            "type": "event"
        },
        {
            "anonymous": false,
            "inputs": [
                {
                    "indexed": true,
                    "internalType": "bytes32",
                    "name": "role",
                    "type": "bytes32"
                },
                {
                    "indexed": true,
                    "internalType": "bytes32",
                    "name": "previousAdminRole",
                    "type": "bytes32"
                },
                {
                    "indexed": true,
                    "internalType": "bytes32",
                    "name": "newAdminRole",
                    "type": "bytes32"
                }
            ],
            "name": "RoleAdminChanged",
            "type": "event"
        },
        {
            "anonymous": false,
            "inputs": [
                {
                    "indexed": true,
                    "internalType": "bytes32",
                    "name": "role",
                    "type": "bytes32"
                },
                {
                    "indexed": true,
                    "internalType": "address",
                    "name": "account",
                    "type": "address"
                },
                {
                    "indexed": true,
                    "internalType": "address",
                    "name": "sender",
                    "type": "address"
                }
            ],
            "name": "RoleGranted",
            "type": "event"
        },
        {
            "anonymous": false,
            "inputs": [
                {
                    "indexed": true,
                    "internalType": "bytes32",
                    "name": "role",
                    "type": "bytes32"
                },
                {
                    "indexed": true,
                    "internalType": "address",
                    "name": "account",
                    "type": "address"
                },
                {
                    "indexed": true,
                    "internalType": "address",
                    "name": "sender",
                    "type": "address"
                }
            ],
            "name": "RoleRevoked",
            "type": "event"
        },
        {
            "anonymous": false,
            "inputs": [
                {
                    "indexed": true,
                    "internalType": "address",
                    "name": "from",
                    "type": "address"
                },
                {
                    "indexed": true,
                    "internalType": "address",
                    "name": "to",
                    "type": "address"
                },
                {
                    "indexed": false,
                    "internalType": "uint256",
                    "name": "value",
                    "type": "uint256"
                }
            ],
            "name": "Transfer",
            "type": "event"
        },
        {
            "anonymous": false,
            "inputs": [
                {
                    "indexed": false,
                    "internalType": "address",
                    "name": "account",
                    "type": "address"
                }
            ],
            "name": "Unpaused",
            "type": "event"
        },
        {
            "inputs": [],
            "name": "DEFAULT_ADMIN_ROLE",
            "outputs": [
                {
                    "internalType": "bytes32",
                    "name": "",
                    "type": "bytes32"
                }
            ],
            "stateMutability": "view",
            "type": "function"
        },
        {
            "inputs": [],
            "name": "DOMAIN_SEPARATOR",
            "outputs": [
                {
                    "internalType": "bytes32",
                    "name": "",
                    "type": "bytes32"
                }
            ],
            "stateMutability": "view",
            "type": "function"
        },
        {
            "inputs": [],
            "name": "OPERATOR_ROLE",
            "outputs": [
                {
                    "internalType": "bytes32",
                    "name": "",
                    "type": "bytes32"
                }
            ],
            "stateMutability": "view",
            "type": "function"
        },
        {
            "inputs": [],
            "name": "PAUSER_ROLE",
            "outputs": [
                {
                    "internalType": "bytes32",
                    "name": "",
                    "type": "bytes32"
                }
            ],
            "stateMutability": "view",
            "type": "function"
        },
        {
            "inputs": [
                {
                    "internalType": "address",
                    "name": "account",
                    "type": "address"
                }
            ],
            "name": "addOperator",
            "outputs": [],
            "stateMutability": "nonpayable",
            "type": "function"
        },
        {
            "inputs": [
                {
                    "internalType": "address",
                    "name": "account",
                    "type": "address"
                }
            ],
            "name": "addPauser",
            "outputs": [],
            "stateMutability": "nonpayable",
            "type": "function"
        },
        {
            "inputs": [
                {
                    "internalType": "address",
                    "name": "owner",
                    "type": "address"
                },
                {
                    "internalType": "address",
                    "name": "spender",
                    "type": "address"
                }
            ],
            "name": "allowance",
            "outputs": [
                {
                    "internalType": "uint256",
                    "name": "",
                    "type": "uint256"
                }
            ],
            "stateMutability": "view",
            "type": "function"
        },
        {
            "inputs": [
                {
                    "internalType": "address",
                    "name": "spender",
                    "type": "address"
                },
                {
                    "internalType": "uint256",
                    "name": "amount",
                    "type": "uint256"
                }
            ],
            "name": "approve",
            "outputs": [
                {
                    "internalType": "bool",
                    "name": "",
                    "type": "bool"
                }
            ],
            "stateMutability": "nonpayable",
            "type": "function"
        },
        {
            "inputs": [
                {
                    "internalType": "address",
                    "name": "account",
                    "type": "address"
                }
            ],
            "name": "balanceOf",
            "outputs": [
                {
                    "internalType": "uint256",
                    "name": "",
                    "type": "uint256"
                }
            ],
            "stateMutability": "view",
            "type": "function"
        },
        {
            "inputs": [
                {
                    "internalType": "address",
                    "name": "account",
                    "type": "address"
                },
                {
                    "internalType": "uint256",
                    "name": "amount",
                    "type": "uint256"
                }
            ],
            "name": "burn",
            "outputs": [],
            "stateMutability": "nonpayable",
            "type": "function"
        },
        {
            "inputs": [],
            "name": "cap",
            "outputs": [
                {
                    "internalType": "uint256",
                    "name": "",
                    "type": "uint256"
                }
            ],
            "stateMutability": "view",
            "type": "function"
        },
        {
            "inputs": [
                {
                    "internalType": "address",
                    "name": "account",
                    "type": "address"
                }
            ],
            "name": "checkOperator",
            "outputs": [
                {
                    "internalType": "bool",
                    "name": "",
                    "type": "bool"
                }
            ],
            "stateMutability": "view",
            "type": "function"
        },
        {
            "inputs": [
                {
                    "internalType": "address",
                    "name": "account",
                    "type": "address"
                }
            ],
            "name": "checkPauser",
            "outputs": [
                {
                    "internalType": "bool",
                    "name": "",
                    "type": "bool"
                }
            ],
            "stateMutability": "view",
            "type": "function"
        },
        {
            "inputs": [],
            "name": "decimals",
            "outputs": [
                {
                    "internalType": "uint8",
                    "name": "",
                    "type": "uint8"
                }
            ],
            "stateMutability": "view",
            "type": "function"
        },
        {
            "inputs": [
                {
                    "internalType": "address",
                    "name": "spender",
                    "type": "address"
                },
                {
                    "internalType": "uint256",
                    "name": "subtractedValue",
                    "type": "uint256"
                }
            ],
            "name": "decreaseAllowance",
            "outputs": [
                {
                    "internalType": "bool",
                    "name": "",
                    "type": "bool"
                }
            ],
            "stateMutability": "nonpayable",
            "type": "function"
        },
        {
            "inputs": [],
            "name": "getChainId",
            "outputs": [
                {
                    "internalType": "uint256",
                    "name": "",
                    "type": "uint256"
                }
            ],
            "stateMutability": "view",
            "type": "function"
        },
        {
            "inputs": [
                {
                    "internalType": "bytes32",
                    "name": "role",
                    "type": "bytes32"
                }
            ],
            "name": "getRoleAdmin",
            "outputs": [
                {
                    "internalType": "bytes32",
                    "name": "",
                    "type": "bytes32"
                }
            ],
            "stateMutability": "view",
            "type": "function"
        },
        {
            "inputs": [
                {
                    "internalType": "bytes32",
                    "name": "role",
                    "type": "bytes32"
                },
                {
                    "internalType": "address",
                    "name": "account",
                    "type": "address"
                }
            ],
            "name": "grantRole",
            "outputs": [],
            "stateMutability": "nonpayable",
            "type": "function"
        },
        {
            "inputs": [
                {
                    "internalType": "bytes32",
                    "name": "role",
                    "type": "bytes32"
                },
                {
                    "internalType": "address",
                    "name": "account",
                    "type": "address"
                }
            ],
            "name": "hasRole",
            "outputs": [
                {
                    "internalType": "bool",
                    "name": "",
                    "type": "bool"
                }
            ],
            "stateMutability": "view",
            "type": "function"
        },
        {
            "inputs": [
                {
                    "internalType": "address",
                    "name": "spender",
                    "type": "address"
                },
                {
                    "internalType": "uint256",
                    "name": "addedValue",
                    "type": "uint256"
                }
            ],
            "name": "increaseAllowance",
            "outputs": [
                {
                    "internalType": "bool",
                    "name": "",
                    "type": "bool"
                }
            ],
            "stateMutability": "nonpayable",
            "type": "function"
        },
        {
            "inputs": [
                {
                    "internalType": "address",
                    "name": "account",
                    "type": "address"
                },
                {
                    "internalType": "uint256",
                    "name": "amount",
                    "type": "uint256"
                }
            ],
            "name": "mint",
            "outputs": [],
            "stateMutability": "nonpayable",
            "type": "function"
        },
        {
            "inputs": [],
            "name": "name",
            "outputs": [
                {
                    "internalType": "string",
                    "name": "",
                    "type": "string"
                }
            ],
            "stateMutability": "view",
            "type": "function"
        },
        {
            "inputs": [
                {
                    "internalType": "address",
                    "name": "owner",
                    "type": "address"
                }
            ],
            "name": "nonces",
            "outputs": [
                {
                    "internalType": "uint256",
                    "name": "",
                    "type": "uint256"
                }
            ],
            "stateMutability": "view",
            "type": "function"
        },
        {
            "inputs": [],
            "name": "owner",
            "outputs": [
                {
                    "internalType": "address",
                    "name": "",
                    "type": "address"
                }
            ],
            "stateMutability": "view",
            "type": "function"
        },
        {
            "inputs": [],
            "name": "pause",
            "outputs": [],
            "stateMutability": "nonpayable",
            "type": "function"
        },
        {
            "inputs": [],
            "name": "paused",
            "outputs": [
                {
                    "internalType": "bool",
                    "name": "",
                    "type": "bool"
                }
            ],
            "stateMutability": "view",
            "type": "function"
        },
        {
            "inputs": [
                {
                    "internalType": "address",
                    "name": "owner",
                    "type": "address"
                },
                {
                    "internalType": "address",
                    "name": "spender",
                    "type": "address"
                },
                {
                    "internalType": "uint256",
                    "name": "value",
                    "type": "uint256"
                },
                {
                    "internalType": "uint256",
                    "name": "deadline",
                    "type": "uint256"
                },
                {
                    "internalType": "uint8",
                    "name": "v",
                    "type": "uint8"
                },
                {
                    "internalType": "bytes32",
                    "name": "r",
                    "type": "bytes32"
                },
                {
                    "internalType": "bytes32",
                    "name": "s",
                    "type": "bytes32"
                }
            ],
            "name": "permit",
            "outputs": [],
            "stateMutability": "nonpayable",
            "type": "function"
        },
        {
            "inputs": [
                {
                    "internalType": "address",
                    "name": "account",
                    "type": "address"
                }
            ],
            "name": "removeOperator",
            "outputs": [],
            "stateMutability": "nonpayable",
            "type": "function"
        },
        {
            "inputs": [
                {
                    "internalType": "address",
                    "name": "account",
                    "type": "address"
                }
            ],
            "name": "removePauser",
            "outputs": [],
            "stateMutability": "nonpayable",
            "type": "function"
        },
        {
            "inputs": [],
            "name": "renounceOwnership",
            "outputs": [],
            "stateMutability": "nonpayable",
            "type": "function"
        },
        {
            "inputs": [
                {
                    "internalType": "bytes32",
                    "name": "role",
                    "type": "bytes32"
                },
                {
                    "internalType": "address",
                    "name": "account",
                    "type": "address"
                }
            ],
            "name": "renounceRole",
            "outputs": [],
            "stateMutability": "nonpayable",
            "type": "function"
        },
        {
            "inputs": [
                {
                    "internalType": "bytes32",
                    "name": "role",
                    "type": "bytes32"
                },
                {
                    "internalType": "address",
                    "name": "account",
                    "type": "address"
                }
            ],
            "name": "revokeRole",
            "outputs": [],
            "stateMutability": "nonpayable",
            "type": "function"
        },
        {
            "inputs": [
                {
                    "internalType": "bytes4",
                    "name": "interfaceId",
                    "type": "bytes4"
                }
            ],
            "name": "supportsInterface",
            "outputs": [
                {
                    "internalType": "bool",
                    "name": "",
                    "type": "bool"
                }
            ],
            "stateMutability": "view",
            "type": "function"
        },
        {
            "inputs": [],
            "name": "symbol",
            "outputs": [
                {
                    "internalType": "string",
                    "name": "",
                    "type": "string"
                }
            ],
            "stateMutability": "view",
            "type": "function"
        },
        {
            "inputs": [],
            "name": "totalSupply",
            "outputs": [
                {
                    "internalType": "uint256",
                    "name": "",
                    "type": "uint256"
                }
            ],
            "stateMutability": "view",
            "type": "function"
        },
        {
            "inputs": [
                {
                    "internalType": "address",
                    "name": "recipient",
                    "type": "address"
                },
                {
                    "internalType": "uint256",
                    "name": "amount",
                    "type": "uint256"
                }
            ],
            "name": "transfer",
            "outputs": [
                {
                    "internalType": "bool",
                    "name": "",
                    "type": "bool"
                }
            ],
            "stateMutability": "nonpayable",
            "type": "function"
        },
        {
            "inputs": [
                {
                    "internalType": "address",
                    "name": "sender",
                    "type": "address"
                },
                {
                    "internalType": "address",
                    "name": "recipient",
                    "type": "address"
                },
                {
                    "internalType": "uint256",
                    "name": "amount",
                    "type": "uint256"
                }
            ],
            "name": "transferFrom",
            "outputs": [
                {
                    "internalType": "bool",
                    "name": "",
                    "type": "bool"
                }
            ],
            "stateMutability": "nonpayable",
            "type": "function"
        },
        {
            "inputs": [
                {
                    "internalType": "address",
                    "name": "newOwner",
                    "type": "address"
                }
            ],
            "name": "transferOwnership",
            "outputs": [],
            "stateMutability": "nonpayable",
            "type": "function"
        },
        {
            "inputs": [],
            "name": "unpause",
            "outputs": [],
            "stateMutability": "nonpayable",
            "type": "function"
        }
    ],
    "bytecode": "6101606040527f6e71edae12b1b97f4d1f60370fef10105fa2faae0126114a169c64845d6126c9610120523480156200003757600080fd5b506040516200280b3803806200280b8339810160408190526200005a9162000463565b6a52b7d2dcc80cd2e40000008280604051806040016040528060018152602001603160f81b815250858581600390805190602001906200009c9291906200030a565b508051620000b29060049060208401906200030a565b5050825160209384012082519284019290922060c083815260e08290524660a0818152604080517f8b73c3c69bb8fe3d512ecc4cf759cc79239f7b179b0ffacaa9a75d522b39400f818a018190528183019890985260608101959095526080808601939093523085830152805180860390920182529390920190925280519401939093209092526101005250506006805460ff19169055806200019b5760405162461bcd60e51b815260206004820152601560248201527f45524332304361707065643a2063617020697320300000000000000000000000604482015260640160405180910390fd5b6101405260068054610100600160a81b0319163361010081029190911790915560405181906000907f8be0079c531659141344cd1fd0a4f28419497f9722a3daafe3b4186f6b6457e0908290a350620001f660003362000256565b620002227f97667070c54ef182b0f5858b034beac1b6f3089aa2d3188bb1e8929f4fa9b9293362000256565b6200024e7f65d7a28e3265b37a6474929f336521b332c1681b933f6cb9f3376673440d862a3362000256565b50506200051d565b62000262828262000266565b5050565b60008281526007602090815260408083206001600160a01b038516845290915290205460ff16620002625760008281526007602090815260408083206001600160a01b03851684529091529020805460ff19166001179055620002c63390565b6001600160a01b0316816001600160a01b0316837f2f8788117e7eff1d82e926ec794901d17c78024a50270940304540a733656f0d60405160405180910390a45050565b8280546200031890620004ca565b90600052602060002090601f0160209004810192826200033c576000855562000387565b82601f106200035757805160ff191683800117855562000387565b8280016001018555821562000387579182015b82811115620003875782518255916020019190600101906200036a565b506200039592915062000399565b5090565b5b808211156200039557600081556001016200039a565b600082601f830112620003c1578081fd5b81516001600160401b0380821115620003de57620003de62000507565b604051601f8301601f19908116603f0116810190828211818310171562000409576200040962000507565b8160405283815260209250868385880101111562000425578485fd5b8491505b8382101562000448578582018301518183018401529082019062000429565b838211156200045957848385830101525b9695505050505050565b6000806040838503121562000476578182fd5b82516001600160401b03808211156200048d578384fd5b6200049b86838701620003b0565b93506020850151915080821115620004b1578283fd5b50620004c085828601620003b0565b9150509250929050565b600181811c90821680620004df57607f821691505b602082108114156200050157634e487b7160e01b600052602260045260246000fd5b50919050565b634e487b7160e01b600052604160045260246000fd5b60805160a05160c05160e05161010051610120516101405161228c6200057f600039600081816103190152611c9701526000610d7d015260006113d501526000611424015260006113ff01526000611383015260006113ac015261228c6000f3fe608060405234801561001057600080fd5b506004361061023d5760003560e01c8063715018a61161013b578063a457c2d7116100b8578063dd62ed3e1161007c578063dd62ed3e146104d4578063de1ac2fd1461050d578063e63ab1e914610520578063f2fde38b14610535578063f5b541a61461054857600080fd5b8063a457c2d714610475578063a9059cbb14610488578063ac8a584a1461049b578063d505accf146104ae578063d547741f146104c157600080fd5b806391d14854116100ff57806391d148541461042c57806395d89b411461043f5780639870d7fe146104475780639dc29fac1461045a578063a217fddf1461046d57600080fd5b8063715018a6146103cd5780637ecebe00146103d557806382dc1ec4146103e85780638456cb59146103fb5780638da5cb5b1461040357600080fd5b80633408e470116101c95780633f4ba83a1161018d5780633f4ba83a1461036b57806340c10f19146103735780635c975abb146103865780636b2c0f551461039157806370a08231146103a457600080fd5b80633408e47014610311578063355274ea146103175780633644e5151461033d57806336568abe14610345578063395093511461035857600080fd5b80631b13bea8116102105780631b13bea8146102a457806323b872dd146102b7578063248a9ca3146102ca5780632f2ff15d146102ed578063313ce5671461030257600080fd5b806301ffc9a71461024257806306fdde031461026a578063095ea7b31461027f57806318160ddd14610292575b600080fd5b610255610250366004611fea565b61055d565b60405190151581526020015b60405180910390f35b610272610594565b6040516102619190612087565b61025561028d366004611f87565b610626565b6002545b604051908152602001610261565b6102556102b2366004611e8f565b61063c565b6102556102c5366004611edb565b610656565b6102966102d8366004611fb0565b60009081526007602052604090206001015490565b6103006102fb366004611fc8565b61070c565b005b60405160128152602001610261565b46610296565b7f0000000000000000000000000000000000000000000000000000000000000000610296565b610296610737565b610300610353366004611fc8565b610746565b610255610366366004611f87565b6107c4565b6103006107fb565b610300610381366004611f87565b610839565b60065460ff16610255565b61030061039f366004611e8f565b610877565b6102966103b2366004611e8f565b6001600160a01b031660009081526020819052604090205490565b6103006108ed565b6102966103e3366004611e8f565b61099d565b6103006103f6366004611e8f565b6109bb565b610300610a89565b60065461010090046001600160a01b03166040516001600160a01b039091168152602001610261565b61025561043a366004611fc8565b610ac5565b610272610af0565b610300610455366004611e8f565b610aff565b610300610468366004611f87565b610b9b565b610296600081565b610255610483366004611f87565b610bd9565b610255610496366004611f87565b610c74565b6103006104a9366004611e8f565b610c81565b6103006104bc366004611f16565b610d29565b6103006104cf366004611fc8565b610e8d565b6102966104e2366004611ea9565b6001600160a01b03918216600090815260016020908152604080832093909416825291909152205490565b61025561051b366004611e8f565b610eb3565b61029660008051602061223783398151915281565b610300610543366004611e8f565b610ecd565b61029660008051602061221783398151915281565b60006001600160e01b03198216637965db0b60e01b148061058e57506301ffc9a760e01b6001600160e01b03198316145b92915050565b6060600380546105a3906121cb565b80601f01602080910402602001604051908101604052809291908181526020018280546105cf906121cb565b801561061c5780601f106105f15761010080835404028352916020019161061c565b820191906000526020600020905b8154815290600101906020018083116105ff57829003601f168201915b5050505050905090565b6000610633338484610f8d565b50600192915050565b600061058e60008051602061223783398151915283610ac5565b60006106638484846110b2565b6001600160a01b0384166000908152600160209081526040808320338452909152902054828110156106ed5760405162461bcd60e51b815260206004820152602860248201527f45524332303a207472616e7366657220616d6f756e74206578636565647320616044820152676c6c6f77616e636560c01b60648201526084015b60405180910390fd5b61070185336106fc868561216d565b610f8d565b506001949350505050565b6000828152600760205260409020600101546107288133611295565b61073283836112f9565b505050565b600061074161137f565b905090565b6001600160a01b03811633146107b65760405162461bcd60e51b815260206004820152602f60248201527f416363657373436f6e74726f6c3a2063616e206f6e6c792072656e6f756e636560448201526e103937b632b9903337b91039b2b63360891b60648201526084016106e4565b6107c08282611472565b5050565b3360008181526001602090815260408083206001600160a01b038716845290915281205490916106339185906106fc908690612136565b61081360008051602061223783398151915233610ac5565b61082f5760405162461bcd60e51b81526004016106e4906120ba565b6108376114d9565b565b61085160008051602061221783398151915233610ac5565b61086d5760405162461bcd60e51b81526004016106e49061210b565b6107c0828261156c565b610882600033610ac5565b61089e5760405162461bcd60e51b81526004016106e4906120e3565b6108b660008051602061223783398151915282610ac5565b6108d25760405162461bcd60e51b81526004016106e4906120ba565b6108ea60008051602061223783398151915282610e8d565b50565b6006546001600160a01b0361010090910416331461094d5760405162461bcd60e51b815260206004820181905260248201527f4f776e61626c653a2063616c6c6572206973206e6f7420746865206f776e657260448201526064016106e4565b60065460405160009161010090046001600160a01b0316907f8be0079c531659141344cd1fd0a4f28419497f9722a3daafe3b4186f6b6457e0908390a360068054610100600160a81b0319169055565b6001600160a01b03811660009081526005602052604081205461058e565b6109c6600033610ac5565b6109e25760405162461bcd60e51b81526004016106e4906120e3565b6109fa60008051602061223783398151915282610ac5565b15610a3d5760405162461bcd60e51b815260206004820152601360248201527224a2279d1030b63932b0b23c903830bab9b2b960691b60448201526064016106e4565b610a5560008051602061221783398151915282610ac5565b610a7157610a716000805160206122178339815191528261070c565b6108ea6000805160206122378339815191528261070c565b610aa160008051602061223783398151915233610ac5565b610abd5760405162461bcd60e51b81526004016106e4906120ba565b610837611576565b60009182526007602090815260408084206001600160a01b0393909316845291905290205460ff1690565b6060600480546105a3906121cb565b610b0a600033610ac5565b610b265760405162461bcd60e51b81526004016106e4906120e3565b610b3e60008051602061221783398151915282610ac5565b15610b835760405162461bcd60e51b815260206004820152601560248201527424a2279d1030b63932b0b23c9037b832b930ba37b960591b60448201526064016106e4565b6108ea6000805160206122178339815191528261070c565b610bb360008051602061221783398151915233610ac5565b610bcf5760405162461bcd60e51b81526004016106e49061210b565b6107c082826115f1565b3360009081526001602090815260408083206001600160a01b038616845290915281205482811015610c5b5760405162461bcd60e51b815260206004820152602560248201527f45524332303a2064656372656173656420616c6c6f77616e63652062656c6f77604482015264207a65726f60d81b60648201526084016106e4565b610c6a33856106fc868561216d565b5060019392505050565b60006106333384846110b2565b610c8c600033610ac5565b610ca85760405162461bcd60e51b81526004016106e4906120e3565b610cc060008051602061221783398151915282610ac5565b610cdc5760405162461bcd60e51b81526004016106e49061210b565b610cf460008051602061221783398151915282610e8d565b610d0c60008051602061223783398151915282610ac5565b156108ea576108ea60008051602061223783398151915282610e8d565b83421115610d795760405162461bcd60e51b815260206004820152601d60248201527f45524332305065726d69743a206578706972656420646561646c696e6500000060448201526064016106e4565b60007f0000000000000000000000000000000000000000000000000000000000000000888888610da88c61174c565b6040805160208101969096526001600160a01b0394851690860152929091166060840152608083015260a082015260c0810186905260e0016040516020818303038152906040528051906020012090506000610e0382611774565b90506000610e13828787876117c2565b9050896001600160a01b0316816001600160a01b031614610e765760405162461bcd60e51b815260206004820152601e60248201527f45524332305065726d69743a20696e76616c6964207369676e6174757265000060448201526064016106e4565b610e818a8a8a610f8d565b50505050505050505050565b600082815260076020526040902060010154610ea98133611295565b6107328383611472565b600061058e60008051602061221783398151915283610ac5565b610ed8600033610ac5565b610ef45760405162461bcd60e51b81526004016106e4906120e3565b610f1160006103536006546001600160a01b036101009091041690565b610f1c60008261196b565b610f3460008051602061221783398151915282610ac5565b610f5057610f506000805160206122178339815191528261196b565b610f6860008051602061223783398151915282610ac5565b610f8457610f846000805160206122378339815191528261196b565b6108ea81611975565b6001600160a01b038316610fef5760405162461bcd60e51b8152602060048201526024808201527f45524332303a20617070726f76652066726f6d20746865207a65726f206164646044820152637265737360e01b60648201526084016106e4565b6001600160a01b0382166110505760405162461bcd60e51b815260206004820152602260248201527f45524332303a20617070726f766520746f20746865207a65726f206164647265604482015261737360f01b60648201526084016106e4565b6001600160a01b0383811660008181526001602090815260408083209487168084529482529182902085905590518481527f8c5be1e5ebec7d5bd14f71427d1e84f3dd0314c0f7b2291e5b200ac8c7c3b92591015b60405180910390a3505050565b6001600160a01b0383166111165760405162461bcd60e51b815260206004820152602560248201527f45524332303a207472616e736665722066726f6d20746865207a65726f206164604482015264647265737360d81b60648201526084016106e4565b6001600160a01b0382166111785760405162461bcd60e51b815260206004820152602360248201527f45524332303a207472616e7366657220746f20746865207a65726f206164647260448201526265737360e81b60648201526084016106e4565b611183838383611aa1565b6001600160a01b038316600090815260208190526040902054818110156111fb5760405162461bcd60e51b815260206004820152602660248201527f45524332303a207472616e7366657220616d6f756e7420657863656564732062604482015265616c616e636560d01b60648201526084016106e4565b611205828261216d565b6001600160a01b03808616600090815260208190526040808220939093559085168152908120805484929061123b908490612136565b92505081905550826001600160a01b0316846001600160a01b03167fddf252ad1be2c89b69c2b068fc378daa952ba7f163c4a11628f55a4df523b3ef8460405161128791815260200190565b60405180910390a350505050565b61129f8282610ac5565b6107c0576112b7816001600160a01b03166014611aac565b6112c2836020611aac565b6040516020016112d3929190612012565b60408051601f198184030181529082905262461bcd60e51b82526106e491600401612087565b6113038282610ac5565b6107c05760008281526007602090815260408083206001600160a01b03851684529091529020805460ff1916600117905561133b3390565b6001600160a01b0316816001600160a01b0316837f2f8788117e7eff1d82e926ec794901d17c78024a50270940304540a733656f0d60405160405180910390a45050565b60007f00000000000000000000000000000000000000000000000000000000000000004614156113ce57507f000000000000000000000000000000000000000000000000000000000000000090565b50604080517f00000000000000000000000000000000000000000000000000000000000000006020808301919091527f0000000000000000000000000000000000000000000000000000000000000000828401527f000000000000000000000000000000000000000000000000000000000000000060608301524660808301523060a0808401919091528351808403909101815260c0909201909252805191012090565b61147c8282610ac5565b156107c05760008281526007602090815260408083206001600160a01b0385168085529252808320805460ff1916905551339285917ff6391f5c32d9c69d2a47ea670b442974b53935d1edc7fd64eb21e047a839171b9190a45050565b60065460ff166115225760405162461bcd60e51b815260206004820152601460248201527314185d5cd8589b194e881b9bdd081c185d5cd95960621b60448201526064016106e4565b6006805460ff191690557f5db9ee0a495bf2e6ff9c91a7834c1ba4fdd244a5e8aa4e537bd38aeae4b073aa335b6040516001600160a01b03909116815260200160405180910390a1565b6107c08282611c95565b60065460ff16156115bc5760405162461bcd60e51b815260206004820152601060248201526f14185d5cd8589b194e881c185d5cd95960821b60448201526064016106e4565b6006805460ff191660011790557f62e78cea01bee320cd4e420270b5ea74000d11b0c9f74754ebdbfc544b05a25861154f3390565b6001600160a01b0382166116515760405162461bcd60e51b815260206004820152602160248201527f45524332303a206275726e2066726f6d20746865207a65726f206164647265736044820152607360f81b60648201526084016106e4565b61165d82600083611aa1565b6001600160a01b038216600090815260208190526040902054818110156116d15760405162461bcd60e51b815260206004820152602260248201527f45524332303a206275726e20616d6f756e7420657863656564732062616c616e604482015261636560f01b60648201526084016106e4565b6116db828261216d565b6001600160a01b0384166000908152602081905260408120919091556002805484929061170990849061216d565b90915550506040518281526000906001600160a01b038516907fddf252ad1be2c89b69c2b068fc378daa952ba7f163c4a11628f55a4df523b3ef906020016110a5565b6001600160a01b03811660009081526005602052604090208054600181018255905b50919050565b600061058e61178161137f565b8360405161190160f01b6020820152602281018390526042810182905260009060620160405160208183030381529060405280519060200120905092915050565b60007f7fffffffffffffffffffffffffffffff5d576e7357a4501ddfe92f46681b20a082111561183f5760405162461bcd60e51b815260206004820152602260248201527f45434453413a20696e76616c6964207369676e6174757265202773272076616c604482015261756560f01b60648201526084016106e4565b8360ff16601b148061185457508360ff16601c145b6118ab5760405162461bcd60e51b815260206004820152602260248201527f45434453413a20696e76616c6964207369676e6174757265202776272076616c604482015261756560f01b60648201526084016106e4565b6040805160008082526020820180845288905260ff871692820192909252606081018590526080810184905260019060a0016020604051602081039080840390855afa1580156118ff573d6000803e3d6000fd5b5050604051601f1901519150506001600160a01b0381166119625760405162461bcd60e51b815260206004820152601860248201527f45434453413a20696e76616c6964207369676e6174757265000000000000000060448201526064016106e4565b95945050505050565b6107c082826112f9565b6006546001600160a01b036101009091041633146119d55760405162461bcd60e51b815260206004820181905260248201527f4f776e61626c653a2063616c6c6572206973206e6f7420746865206f776e657260448201526064016106e4565b6001600160a01b038116611a3a5760405162461bcd60e51b815260206004820152602660248201527f4f776e61626c653a206e6577206f776e657220697320746865207a65726f206160448201526564647265737360d01b60648201526084016106e4565b6006546040516001600160a01b0380841692610100900416907f8be0079c531659141344cd1fd0a4f28419497f9722a3daafe3b4186f6b6457e090600090a3600680546001600160a01b0390921661010002610100600160a81b0319909216919091179055565b610732838383611d22565b60606000611abb83600261214e565b611ac6906002612136565b67ffffffffffffffff811115611aec57634e487b7160e01b600052604160045260246000fd5b6040519080825280601f01601f191660200182016040528015611b16576020820181803683370190505b509050600360fc1b81600081518110611b3f57634e487b7160e01b600052603260045260246000fd5b60200101906001600160f81b031916908160001a905350600f60fb1b81600181518110611b7c57634e487b7160e01b600052603260045260246000fd5b60200101906001600160f81b031916908160001a9053506000611ba084600261214e565b611bab906001612136565b90505b6001811115611c3f576f181899199a1a9b1b9c1cb0b131b232b360811b85600f1660108110611bed57634e487b7160e01b600052603260045260246000fd5b1a60f81b828281518110611c1157634e487b7160e01b600052603260045260246000fd5b60200101906001600160f81b031916908160001a90535060049490941c93611c38816121b4565b9050611bae565b508315611c8e5760405162461bcd60e51b815260206004820181905260248201527f537472696e67733a20686578206c656e67746820696e73756666696369656e7460448201526064016106e4565b9392505050565b7f000000000000000000000000000000000000000000000000000000000000000081611cc060025490565b611cca9190612136565b1115611d185760405162461bcd60e51b815260206004820152601960248201527f45524332304361707065643a206361702065786365656465640000000000000060448201526064016106e4565b6107c08282611d88565b60065460ff16156107325760405162461bcd60e51b815260206004820152602a60248201527f45524332305061757361626c653a20746f6b656e207472616e736665722077686044820152691a5b19481c185d5cd95960b21b60648201526084016106e4565b6001600160a01b038216611dde5760405162461bcd60e51b815260206004820152601f60248201527f45524332303a206d696e7420746f20746865207a65726f20616464726573730060448201526064016106e4565b611dea60008383611aa1565b8060026000828254611dfc9190612136565b90915550506001600160a01b03821660009081526020819052604081208054839290611e29908490612136565b90915550506040518181526001600160a01b038316906000907fddf252ad1be2c89b69c2b068fc378daa952ba7f163c4a11628f55a4df523b3ef9060200160405180910390a35050565b80356001600160a01b0381168114611e8a57600080fd5b919050565b600060208284031215611ea0578081fd5b611c8e82611e73565b60008060408385031215611ebb578081fd5b611ec483611e73565b9150611ed260208401611e73565b90509250929050565b600080600060608486031215611eef578081fd5b611ef884611e73565b9250611f0660208501611e73565b9150604084013590509250925092565b600080600080600080600060e0888a031215611f30578283fd5b611f3988611e73565b9650611f4760208901611e73565b95506040880135945060608801359350608088013560ff81168114611f6a578384fd5b9699959850939692959460a0840135945060c09093013592915050565b60008060408385031215611f99578182fd5b611fa283611e73565b946020939093013593505050565b600060208284031215611fc1578081fd5b5035919050565b60008060408385031215611fda578182fd5b82359150611ed260208401611e73565b600060208284031215611ffb578081fd5b81356001600160e01b031981168114611c8e578182fd5b7f416363657373436f6e74726f6c3a206163636f756e742000000000000000000081526000835161204a816017850160208801612184565b7001034b99036b4b9b9b4b733903937b6329607d1b601791840191820152835161207b816028840160208801612184565b01602801949350505050565b60208152600082518060208401526120a6816040850160208701612184565b601f01601f19169190910160400192915050565b6020808252600f908201526e24a2279d103737ba103830bab9b2b960891b604082015260600190565b6020808252600e908201526d24a2279d103737ba1030b236b4b760911b604082015260600190565b60208082526011908201527024a2279d103737ba1037b832b930ba37b960791b604082015260600190565b6000821982111561214957612149612200565b500190565b600081600019048311821515161561216857612168612200565b500290565b60008282101561217f5761217f612200565b500390565b60005b8381101561219f578181015183820152602001612187565b838111156121ae576000848401525b50505050565b6000816121c3576121c3612200565b506000190190565b600181811c908216806121df57607f821691505b6020821081141561176e57634e487b7160e01b600052602260045260246000fd5b634e487b7160e01b600052601160045260246000fdfe97667070c54ef182b0f5858b034beac1b6f3089aa2d3188bb1e8929f4fa9b92965d7a28e3265b37a6474929f336521b332c1681b933f6cb9f3376673440d862aa264697066735822122062cb8c1479f417680f36e48a4ed2614b62be0af4436580fd1336051cba5cedcc64736f6c63430008040033",
    "sourcePath": "e:/Works/SolidityWorks/idexo/ido-contracts/contracts/IDO.sol",
    "compiler": {
        "name": "solc",
        "version": "0.8.4+commit.c7e474f2"
    },
    "functionHashes": {
        "DEFAULT_ADMIN_ROLE()": "a217fddf",
        "DOMAIN_SEPARATOR()": "3644e515",
        "OPERATOR_ROLE()": "f5b541a6",
        "PAUSER_ROLE()": "e63ab1e9",
        "addOperator(address)": "9870d7fe",
        "addPauser(address)": "82dc1ec4",
        "allowance(address,address)": "dd62ed3e",
        "approve(address,uint256)": "095ea7b3",
        "balanceOf(address)": "70a08231",
        "burn(address,uint256)": "9dc29fac",
        "cap()": "355274ea",
        "checkOperator(address)": "de1ac2fd",
        "checkPauser(address)": "1b13bea8",
        "decimals()": "313ce567",
        "decreaseAllowance(address,uint256)": "a457c2d7",
        "getChainId()": "3408e470",
        "getRoleAdmin(bytes32)": "248a9ca3",
        "grantRole(bytes32,address)": "2f2ff15d",
        "hasRole(bytes32,address)": "91d14854",
        "increaseAllowance(address,uint256)": "39509351",
        "mint(address,uint256)": "40c10f19",
        "name()": "06fdde03",
        "nonces(address)": "7ecebe00",
        "owner()": "8da5cb5b",
        "pause()": "8456cb59",
        "paused()": "5c975abb",
        "permit(address,address,uint256,uint256,uint8,bytes32,bytes32)": "d505accf",
        "removeOperator(address)": "ac8a584a",
        "removePauser(address)": "6b2c0f55",
        "renounceOwnership()": "715018a6",
        "renounceRole(bytes32,address)": "36568abe",
        "revokeRole(bytes32,address)": "d547741f",
        "supportsInterface(bytes4)": "01ffc9a7",
        "symbol()": "95d89b41",
        "totalSupply()": "18160ddd",
        "transfer(address,uint256)": "a9059cbb",
        "transferFrom(address,address,uint256)": "23b872dd",
        "transferOwnership(address)": "f2fde38b",
        "unpause()": "3f4ba83a"
    },
    "gasEstimates": {
        "creation": {
            "codeDepositCost": "1768800",
            "executionCost": "infinite",
            "totalCost": "infinite"
        },
        "external": {
            "DEFAULT_ADMIN_ROLE()": "328",
            "DOMAIN_SEPARATOR()": "infinite",
            "OPERATOR_ROLE()": "infinite",
            "PAUSER_ROLE()": "infinite",
            "addOperator(address)": "infinite",
            "addPauser(address)": "infinite",
            "allowance(address,address)": "infinite",
            "approve(address,uint256)": "22577",
            "balanceOf(address)": "1373",
            "burn(address,uint256)": "infinite",
            "cap()": "infinite",
            "checkOperator(address)": "infinite",
            "checkPauser(address)": "infinite",
            "decimals()": "311",
            "decreaseAllowance(address,uint256)": "23581",
            "getChainId()": "237",
            "getRoleAdmin(bytes32)": "1234",
            "grantRole(bytes32,address)": "infinite",
            "hasRole(bytes32,address)": "1399",
            "increaseAllowance(address,uint256)": "23658",
            "mint(address,uint256)": "infinite",
            "name()": "infinite",
            "nonces(address)": "1339",
            "owner()": "1164",
            "pause()": "infinite",
            "paused()": "1082",
            "permit(address,address,uint256,uint256,uint8,bytes32,bytes32)": "infinite",
            "removeOperator(address)": "infinite",
            "removePauser(address)": "infinite",
            "renounceOwnership()": "24233",
            "renounceRole(bytes32,address)": "24413",
            "revokeRole(bytes32,address)": "infinite",
            "supportsInterface(bytes4)": "473",
            "symbol()": "infinite",
            "totalSupply()": "1094",
            "transfer(address,uint256)": "infinite",
            "transferFrom(address,address,uint256)": "infinite",
            "transferOwnership(address)": "infinite",
            "unpause()": "infinite"
        },
        "internal": {
            "_beforeTokenTransfer(address,address,uint256)": "infinite",
            "_mint(address,uint256)": "infinite"
        }
    }
}