{
    "contractName": "StakePool",
    "abi": [
        {
            "inputs": [
                {
                    "internalType": "string",
                    "name": "stakeTokenName_",
                    "type": "string"
                },
                {
                    "internalType": "string",
                    "name": "stakeTokenSymbol_",
                    "type": "string"
                },
                {
                    "internalType": "contract IERC20",
                    "name": "depositToken_",
                    "type": "address"
                },
                {
                    "internalType": "contract IERC20",
                    "name": "rewardToken_",
                    "type": "address"
                }
            ],
            "stateMutability": "nonpayable",
            "type": "constructor"
        },
        {
            "anonymous": false,
            "inputs": [
                {
                    "indexed": true,
                    "internalType": "address",
                    "name": "owner",
                    "type": "address"
                },
                {
                    "indexed": true,
                    "internalType": "address",
                    "name": "approved",
                    "type": "address"
                },
                {
                    "indexed": true,
                    "internalType": "uint256",
                    "name": "tokenId",
                    "type": "uint256"
                }
            ],
            "name": "Approval",
            "type": "event"
        },
        {
            "anonymous": false,
            "inputs": [
                {
                    "indexed": true,
                    "internalType": "address",
                    "name": "owner",
                    "type": "address"
                },
                {
                    "indexed": true,
                    "internalType": "address",
                    "name": "operator",
                    "type": "address"
                },
                {
                    "indexed": false,
                    "internalType": "bool",
                    "name": "approved",
                    "type": "bool"
                }
            ],
            "name": "ApprovalForAll",
            "type": "event"
        },
        {
            "anonymous": false,
            "inputs": [
                {
                    "indexed": true,
                    "internalType": "address",
                    "name": "account",
                    "type": "address"
                },
                {
                    "indexed": true,
                    "internalType": "uint256",
                    "name": "stakeId",
                    "type": "uint256"
                },
                {
                    "indexed": false,
                    "internalType": "uint256",
                    "name": "amount",
                    "type": "uint256"
                }
            ],
            "name": "Deposited",
            "type": "event"
        },
        {
            "anonymous": false,
            "inputs": [
                {
                    "indexed": false,
                    "internalType": "uint256",
                    "name": "amount",
                    "type": "uint256"
                },
                {
                    "indexed": false,
                    "internalType": "uint256",
                    "name": "distributedAt",
                    "type": "uint256"
                }
            ],
            "name": "MonthlyDistributed",
            "type": "event"
        },
        {
            "anonymous": false,
            "inputs": [
                {
                    "indexed": true,
                    "internalType": "address",
                    "name": "previousOwner",
                    "type": "address"
                },
                {
                    "indexed": true,
                    "internalType": "address",
                    "name": "newOwner",
                    "type": "address"
                }
            ],
            "name": "OwnershipTransferred",
            "type": "event"
        },
        {
            "anonymous": false,
            "inputs": [
                {
                    "indexed": false,
                    "internalType": "uint256",
                    "name": "amount",
                    "type": "uint256"
                },
                {
                    "indexed": false,
                    "internalType": "uint256",
                    "name": "distributedAt",
                    "type": "uint256"
                }
            ],
            "name": "QuarterlyDistributed",
            "type": "event"
        },
        {
            "anonymous": false,
            "inputs": [
                {
                    "indexed": true,
                    "internalType": "address",
                    "name": "account",
                    "type": "address"
                },
                {
                    "indexed": false,
                    "internalType": "uint256",
                    "name": "amount",
                    "type": "uint256"
                }
            ],
            "name": "RewardClaimed",
            "type": "event"
        },
        {
            "anonymous": false,
            "inputs": [
                {
                    "indexed": true,
                    "internalType": "address",
                    "name": "account",
                    "type": "address"
                },
                {
                    "indexed": false,
                    "internalType": "uint256",
                    "name": "amount",
                    "type": "uint256"
                }
            ],
            "name": "RewardDeposited",
            "type": "event"
        },
        {
            "anonymous": false,
            "inputs": [
                {
                    "indexed": true,
                    "internalType": "bytes32",
                    "name": "role",
                    "type": "bytes32"
                },
                {
                    "indexed": true,
                    "internalType": "bytes32",
                    "name": "previousAdminRole",
                    "type": "bytes32"
                },
                {
                    "indexed": true,
                    "internalType": "bytes32",
                    "name": "newAdminRole",
                    "type": "bytes32"
                }
            ],
            "name": "RoleAdminChanged",
            "type": "event"
        },
        {
            "anonymous": false,
            "inputs": [
                {
                    "indexed": true,
                    "internalType": "bytes32",
                    "name": "role",
                    "type": "bytes32"
                },
                {
                    "indexed": true,
                    "internalType": "address",
                    "name": "account",
                    "type": "address"
                },
                {
                    "indexed": true,
                    "internalType": "address",
                    "name": "sender",
                    "type": "address"
                }
            ],
            "name": "RoleGranted",
            "type": "event"
        },
        {
            "anonymous": false,
            "inputs": [
                {
                    "indexed": true,
                    "internalType": "bytes32",
                    "name": "role",
                    "type": "bytes32"
                },
                {
                    "indexed": true,
                    "internalType": "address",
                    "name": "account",
                    "type": "address"
                },
                {
                    "indexed": true,
                    "internalType": "address",
                    "name": "sender",
                    "type": "address"
                }
            ],
            "name": "RoleRevoked",
            "type": "event"
        },
        {
            "anonymous": false,
            "inputs": [
                {
                    "indexed": false,
                    "internalType": "uint256",
                    "name": "stakeId",
                    "type": "uint256"
                },
                {
                    "indexed": false,
                    "internalType": "uint256",
                    "name": "decreaseAmount",
                    "type": "uint256"
                }
            ],
            "name": "StakeAmountDecreased",
            "type": "event"
        },
        {
            "anonymous": false,
            "inputs": [
                {
                    "indexed": true,
                    "internalType": "address",
                    "name": "operator",
                    "type": "address"
                },
                {
                    "indexed": false,
                    "internalType": "address",
                    "name": "token",
                    "type": "address"
                },
                {
                    "indexed": true,
                    "internalType": "address",
                    "name": "to",
                    "type": "address"
                },
                {
                    "indexed": false,
                    "internalType": "uint256",
                    "name": "amount",
                    "type": "uint256"
                }
            ],
            "name": "Swept",
            "type": "event"
        },
        {
            "anonymous": false,
            "inputs": [
                {
                    "indexed": true,
                    "internalType": "address",
                    "name": "from",
                    "type": "address"
                },
                {
                    "indexed": true,
                    "internalType": "address",
                    "name": "to",
                    "type": "address"
                },
                {
                    "indexed": true,
                    "internalType": "uint256",
                    "name": "tokenId",
                    "type": "uint256"
                }
            ],
            "name": "Transfer",
            "type": "event"
        },
        {
            "anonymous": false,
            "inputs": [
                {
                    "indexed": true,
                    "internalType": "address",
                    "name": "account",
                    "type": "address"
                },
                {
                    "indexed": true,
                    "internalType": "uint256",
                    "name": "stakeId",
                    "type": "uint256"
                },
                {
                    "indexed": false,
                    "internalType": "uint256",
                    "name": "amount",
                    "type": "uint256"
                }
            ],
            "name": "Withdrawn",
            "type": "event"
        },
        {
            "anonymous": false,
            "inputs": [
                {
                    "indexed": false,
                    "internalType": "uint256",
                    "name": "amount",
                    "type": "uint256"
                },
                {
                    "indexed": false,
                    "internalType": "uint256",
                    "name": "distributedAt",
                    "type": "uint256"
                }
            ],
            "name": "YearlyDistributed",
            "type": "event"
        },
        {
            "inputs": [],
            "name": "DEFAULT_ADMIN_ROLE",
            "outputs": [
                {
                    "internalType": "bytes32",
                    "name": "",
                    "type": "bytes32"
                }
            ],
            "stateMutability": "view",
            "type": "function"
        },
        {
            "inputs": [],
            "name": "MONTH",
            "outputs": [
                {
                    "internalType": "uint256",
                    "name": "",
                    "type": "uint256"
                }
            ],
            "stateMutability": "view",
            "type": "function"
        },
        {
            "inputs": [],
            "name": "OPERATOR_ROLE",
            "outputs": [
                {
                    "internalType": "bytes32",
                    "name": "",
                    "type": "bytes32"
                }
            ],
            "stateMutability": "view",
            "type": "function"
        },
        {
            "inputs": [],
            "name": "QUARTER",
            "outputs": [
                {
                    "internalType": "uint256",
                    "name": "",
                    "type": "uint256"
                }
            ],
            "stateMutability": "view",
            "type": "function"
        },
        {
            "inputs": [],
            "name": "YEAR",
            "outputs": [
                {
                    "internalType": "uint256",
                    "name": "",
                    "type": "uint256"
                }
            ],
            "stateMutability": "view",
            "type": "function"
        },
        {
            "inputs": [
                {
                    "internalType": "address",
                    "name": "account",
                    "type": "address"
                }
            ],
            "name": "addOperator",
            "outputs": [],
            "stateMutability": "nonpayable",
            "type": "function"
        },
        {
            "inputs": [
                {
                    "internalType": "address",
                    "name": "to",
                    "type": "address"
                },
                {
                    "internalType": "uint256",
                    "name": "tokenId",
                    "type": "uint256"
                }
            ],
            "name": "approve",
            "outputs": [],
            "stateMutability": "nonpayable",
            "type": "function"
        },
        {
            "inputs": [
                {
                    "internalType": "address",
                    "name": "owner",
                    "type": "address"
                }
            ],
            "name": "balanceOf",
            "outputs": [
                {
                    "internalType": "uint256",
                    "name": "",
                    "type": "uint256"
                }
            ],
            "stateMutability": "view",
            "type": "function"
        },
        {
            "inputs": [
                {
                    "internalType": "address",
                    "name": "account",
                    "type": "address"
                }
            ],
            "name": "checkOperator",
            "outputs": [
                {
                    "internalType": "bool",
                    "name": "",
                    "type": "bool"
                }
            ],
            "stateMutability": "view",
            "type": "function"
        },
        {
            "inputs": [
                {
                    "internalType": "uint256",
                    "name": "amount",
                    "type": "uint256"
                }
            ],
            "name": "claimReward",
            "outputs": [],
            "stateMutability": "nonpayable",
            "type": "function"
        },
        {
            "inputs": [
                {
                    "internalType": "address",
                    "name": "",
                    "type": "address"
                }
            ],
            "name": "claimableRewards",
            "outputs": [
                {
                    "internalType": "uint256",
                    "name": "",
                    "type": "uint256"
                }
            ],
            "stateMutability": "view",
            "type": "function"
        },
        {
            "inputs": [],
            "name": "deployedAt",
            "outputs": [
                {
                    "internalType": "uint256",
                    "name": "",
                    "type": "uint256"
                }
            ],
            "stateMutability": "view",
            "type": "function"
        },
        {
            "inputs": [
                {
                    "internalType": "uint256",
                    "name": "amount",
                    "type": "uint256"
                }
            ],
            "name": "deposit",
            "outputs": [],
            "stateMutability": "nonpayable",
            "type": "function"
        },
        {
            "inputs": [
                {
                    "internalType": "uint256",
                    "name": "amount",
                    "type": "uint256"
                }
            ],
            "name": "depositReward",
            "outputs": [],
            "stateMutability": "nonpayable",
            "type": "function"
        },
        {
            "inputs": [],
            "name": "depositToken",
            "outputs": [
                {
                    "internalType": "contract IERC20",
                    "name": "",
                    "type": "address"
                }
            ],
            "stateMutability": "view",
            "type": "function"
        },
        {
            "inputs": [],
            "name": "distribute",
            "outputs": [],
            "stateMutability": "nonpayable",
            "type": "function"
        },
        {
            "inputs": [
                {
                    "internalType": "uint256",
                    "name": "tokenId",
                    "type": "uint256"
                }
            ],
            "name": "getApproved",
            "outputs": [
                {
                    "internalType": "address",
                    "name": "",
                    "type": "address"
                }
            ],
            "stateMutability": "view",
            "type": "function"
        },
        {
            "inputs": [
                {
                    "internalType": "uint256",
                    "name": "fromDate",
                    "type": "uint256"
                }
            ],
            "name": "getEligibleStakeAmount",
            "outputs": [
                {
                    "internalType": "uint256",
                    "name": "",
                    "type": "uint256"
                }
            ],
            "stateMutability": "view",
            "type": "function"
        },
        {
            "inputs": [
                {
                    "internalType": "uint256",
                    "name": "id",
                    "type": "uint256"
                }
            ],
            "name": "getRewardDeposit",
            "outputs": [
                {
                    "internalType": "address",
                    "name": "",
                    "type": "address"
                },
                {
                    "internalType": "uint256",
                    "name": "",
                    "type": "uint256"
                },
                {
                    "internalType": "uint256",
                    "name": "",
                    "type": "uint256"
                }
            ],
            "stateMutability": "view",
            "type": "function"
        },
        {
            "inputs": [
                {
                    "internalType": "uint256",
                    "name": "fromDate",
                    "type": "uint256"
                },
                {
                    "internalType": "uint256",
                    "name": "toDate",
                    "type": "uint256"
                }
            ],
            "name": "getRewardDepositSum",
            "outputs": [
                {
                    "internalType": "uint256",
                    "name": "",
                    "type": "uint256"
                }
            ],
            "stateMutability": "view",
            "type": "function"
        },
        {
            "inputs": [
                {
                    "internalType": "bytes32",
                    "name": "role",
                    "type": "bytes32"
                }
            ],
            "name": "getRoleAdmin",
            "outputs": [
                {
                    "internalType": "bytes32",
                    "name": "",
                    "type": "bytes32"
                }
            ],
            "stateMutability": "view",
            "type": "function"
        },
        {
            "inputs": [
                {
                    "internalType": "address",
                    "name": "account",
                    "type": "address"
                }
            ],
            "name": "getStakeAmount",
            "outputs": [
                {
                    "internalType": "uint256",
                    "name": "",
                    "type": "uint256"
                }
            ],
            "stateMutability": "view",
            "type": "function"
        },
        {
            "inputs": [
                {
                    "internalType": "uint256",
                    "name": "stakeId",
                    "type": "uint256"
                }
            ],
            "name": "getStakeInfo",
            "outputs": [
                {
                    "internalType": "uint256",
                    "name": "",
                    "type": "uint256"
                },
                {
                    "internalType": "uint256",
                    "name": "",
                    "type": "uint256"
                },
                {
                    "internalType": "uint256",
                    "name": "",
                    "type": "uint256"
                }
            ],
            "stateMutability": "view",
            "type": "function"
        },
        {
            "inputs": [
                {
                    "internalType": "address",
                    "name": "account",
                    "type": "address"
                }
            ],
            "name": "getStakeTokenIds",
            "outputs": [
                {
                    "internalType": "uint256[]",
                    "name": "",
                    "type": "uint256[]"
                }
            ],
            "stateMutability": "view",
            "type": "function"
        },
        {
            "inputs": [
                {
                    "internalType": "bytes32",
                    "name": "role",
                    "type": "bytes32"
                },
                {
                    "internalType": "address",
                    "name": "account",
                    "type": "address"
                }
            ],
            "name": "grantRole",
            "outputs": [],
            "stateMutability": "nonpayable",
            "type": "function"
        },
        {
            "inputs": [
                {
                    "internalType": "bytes32",
                    "name": "role",
                    "type": "bytes32"
                },
                {
                    "internalType": "address",
                    "name": "account",
                    "type": "address"
                }
            ],
            "name": "hasRole",
            "outputs": [
                {
                    "internalType": "bool",
                    "name": "",
                    "type": "bool"
                }
            ],
            "stateMutability": "view",
            "type": "function"
        },
        {
            "inputs": [
                {
                    "internalType": "address",
                    "name": "owner",
                    "type": "address"
                },
                {
                    "internalType": "address",
                    "name": "operator",
                    "type": "address"
                }
            ],
            "name": "isApprovedForAll",
            "outputs": [
                {
                    "internalType": "bool",
                    "name": "",
                    "type": "bool"
                }
            ],
            "stateMutability": "view",
            "type": "function"
        },
        {
            "inputs": [
                {
                    "internalType": "address",
                    "name": "account",
                    "type": "address"
                }
            ],
            "name": "isHolder",
            "outputs": [
                {
                    "internalType": "bool",
                    "name": "",
                    "type": "bool"
                }
            ],
            "stateMutability": "view",
            "type": "function"
        },
        {
            "inputs": [
                {
                    "internalType": "uint256",
                    "name": "",
                    "type": "uint256"
                }
            ],
            "name": "mDistributes",
            "outputs": [
                {
                    "internalType": "uint256",
                    "name": "amount",
                    "type": "uint256"
                },
                {
                    "internalType": "uint256",
                    "name": "distributedAt",
                    "type": "uint256"
                }
            ],
            "stateMutability": "view",
            "type": "function"
        },
        {
            "inputs": [],
            "name": "mDistributionRatio",
            "outputs": [
                {
                    "internalType": "uint256",
                    "name": "",
                    "type": "uint256"
                }
            ],
            "stateMutability": "view",
            "type": "function"
        },
        {
            "inputs": [],
            "name": "minStakeAmount",
            "outputs": [
                {
                    "internalType": "uint256",
                    "name": "",
                    "type": "uint256"
                }
            ],
            "stateMutability": "view",
            "type": "function"
        },
        {
            "inputs": [],
            "name": "multiplierDenominator",
            "outputs": [
                {
                    "internalType": "uint256",
                    "name": "",
                    "type": "uint256"
                }
            ],
            "stateMutability": "view",
            "type": "function"
        },
        {
            "inputs": [],
            "name": "name",
            "outputs": [
                {
                    "internalType": "string",
                    "name": "",
                    "type": "string"
                }
            ],
            "stateMutability": "view",
            "type": "function"
        },
        {
            "inputs": [],
            "name": "owner",
            "outputs": [
                {
                    "internalType": "address",
                    "name": "",
                    "type": "address"
                }
            ],
            "stateMutability": "view",
            "type": "function"
        },
        {
            "inputs": [
                {
                    "internalType": "uint256",
                    "name": "tokenId",
                    "type": "uint256"
                }
            ],
            "name": "ownerOf",
            "outputs": [
                {
                    "internalType": "address",
                    "name": "",
                    "type": "address"
                }
            ],
            "stateMutability": "view",
            "type": "function"
        },
        {
            "inputs": [
                {
                    "internalType": "uint256",
                    "name": "",
                    "type": "uint256"
                }
            ],
            "name": "qDistributes",
            "outputs": [
                {
                    "internalType": "uint256",
                    "name": "amount",
                    "type": "uint256"
                },
                {
                    "internalType": "uint256",
                    "name": "distributedAt",
                    "type": "uint256"
                }
            ],
            "stateMutability": "view",
            "type": "function"
        },
        {
            "inputs": [],
            "name": "qDistributionRatio",
            "outputs": [
                {
                    "internalType": "uint256",
                    "name": "",
                    "type": "uint256"
                }
            ],
            "stateMutability": "view",
            "type": "function"
        },
        {
            "inputs": [
                {
                    "internalType": "address",
                    "name": "account",
                    "type": "address"
                }
            ],
            "name": "removeOperator",
            "outputs": [],
            "stateMutability": "nonpayable",
            "type": "function"
        },
        {
            "inputs": [],
            "name": "renounceOwnership",
            "outputs": [],
            "stateMutability": "nonpayable",
            "type": "function"
        },
        {
            "inputs": [
                {
                    "internalType": "bytes32",
                    "name": "role",
                    "type": "bytes32"
                },
                {
                    "internalType": "address",
                    "name": "account",
                    "type": "address"
                }
            ],
            "name": "renounceRole",
            "outputs": [],
            "stateMutability": "nonpayable",
            "type": "function"
        },
        {
            "inputs": [
                {
                    "internalType": "bytes32",
                    "name": "role",
                    "type": "bytes32"
                },
                {
                    "internalType": "address",
                    "name": "account",
                    "type": "address"
                }
            ],
            "name": "revokeRole",
            "outputs": [],
            "stateMutability": "nonpayable",
            "type": "function"
        },
        {
            "inputs": [
                {
                    "internalType": "uint256",
                    "name": "",
                    "type": "uint256"
                }
            ],
            "name": "rewardDeposits",
            "outputs": [
                {
                    "internalType": "address",
                    "name": "operator",
                    "type": "address"
                },
                {
                    "internalType": "uint256",
                    "name": "amount",
                    "type": "uint256"
                },
                {
                    "internalType": "uint256",
                    "name": "depositedAt",
                    "type": "uint256"
                }
            ],
            "stateMutability": "view",
            "type": "function"
        },
        {
            "inputs": [],
            "name": "rewardToken",
            "outputs": [
                {
                    "internalType": "contract IERC20",
                    "name": "",
                    "type": "address"
                }
            ],
            "stateMutability": "view",
            "type": "function"
        },
        {
            "inputs": [],
            "name": "sClaimShareDenominator",
            "outputs": [
                {
                    "internalType": "uint256",
                    "name": "",
                    "type": "uint256"
                }
            ],
            "stateMutability": "view",
            "type": "function"
        },
        {
            "inputs": [
                {
                    "internalType": "address",
                    "name": "from",
                    "type": "address"
                },
                {
                    "internalType": "address",
                    "name": "to",
                    "type": "address"
                },
                {
                    "internalType": "uint256",
                    "name": "tokenId",
                    "type": "uint256"
                }
            ],
            "name": "safeTransferFrom",
            "outputs": [],
            "stateMutability": "nonpayable",
            "type": "function"
        },
        {
            "inputs": [
                {
                    "internalType": "address",
                    "name": "from",
                    "type": "address"
                },
                {
                    "internalType": "address",
                    "name": "to",
                    "type": "address"
                },
                {
                    "internalType": "uint256",
                    "name": "tokenId",
                    "type": "uint256"
                },
                {
                    "internalType": "bytes",
                    "name": "_data",
                    "type": "bytes"
                }
            ],
            "name": "safeTransferFrom",
            "outputs": [],
            "stateMutability": "nonpayable",
            "type": "function"
        },
        {
            "inputs": [
                {
                    "internalType": "address",
                    "name": "operator",
                    "type": "address"
                },
                {
                    "internalType": "bool",
                    "name": "approved",
                    "type": "bool"
                }
            ],
            "name": "setApprovalForAll",
            "outputs": [],
            "stateMutability": "nonpayable",
            "type": "function"
        },
        {
            "inputs": [
                {
                    "internalType": "address",
                    "name": "",
                    "type": "address"
                },
                {
                    "internalType": "uint256",
                    "name": "",
                    "type": "uint256"
                }
            ],
            "name": "stakerIds",
            "outputs": [
                {
                    "internalType": "uint256",
                    "name": "",
                    "type": "uint256"
                }
            ],
            "stateMutability": "view",
            "type": "function"
        },
        {
            "inputs": [
                {
                    "internalType": "uint256",
                    "name": "",
                    "type": "uint256"
                }
            ],
            "name": "stakes",
            "outputs": [
                {
                    "internalType": "uint256",
                    "name": "amount",
                    "type": "uint256"
                },
                {
                    "internalType": "uint256",
                    "name": "multiplier",
                    "type": "uint256"
                },
                {
                    "internalType": "uint256",
                    "name": "depositedAt",
                    "type": "uint256"
                }
            ],
            "stateMutability": "view",
            "type": "function"
        },
        {
            "inputs": [
                {
                    "internalType": "bytes4",
                    "name": "interfaceId",
                    "type": "bytes4"
                }
            ],
            "name": "supportsInterface",
            "outputs": [
                {
                    "internalType": "bool",
                    "name": "",
                    "type": "bool"
                }
            ],
            "stateMutability": "view",
            "type": "function"
        },
        {
            "inputs": [
                {
                    "internalType": "address",
                    "name": "token_",
                    "type": "address"
                },
                {
                    "internalType": "address",
                    "name": "to",
                    "type": "address"
                },
                {
                    "internalType": "uint256",
                    "name": "amount",
                    "type": "uint256"
                }
            ],
            "name": "sweep",
            "outputs": [],
            "stateMutability": "nonpayable",
            "type": "function"
        },
        {
            "inputs": [],
            "name": "symbol",
            "outputs": [
                {
                    "internalType": "string",
                    "name": "",
                    "type": "string"
                }
            ],
            "stateMutability": "view",
            "type": "function"
        },
        {
            "inputs": [],
            "name": "tokenIds",
            "outputs": [
                {
                    "internalType": "uint256",
                    "name": "",
                    "type": "uint256"
                }
            ],
            "stateMutability": "view",
            "type": "function"
        },
        {
            "inputs": [
                {
                    "internalType": "uint256",
                    "name": "tokenId",
                    "type": "uint256"
                }
            ],
            "name": "tokenURI",
            "outputs": [
                {
                    "internalType": "string",
                    "name": "",
                    "type": "string"
                }
            ],
            "stateMutability": "view",
            "type": "function"
        },
        {
            "inputs": [
                {
                    "internalType": "address",
                    "name": "from",
                    "type": "address"
                },
                {
                    "internalType": "address",
                    "name": "to",
                    "type": "address"
                },
                {
                    "internalType": "uint256",
                    "name": "tokenId",
                    "type": "uint256"
                }
            ],
            "name": "transferFrom",
            "outputs": [],
            "stateMutability": "nonpayable",
            "type": "function"
        },
        {
            "inputs": [
                {
                    "internalType": "address",
                    "name": "newOwner",
                    "type": "address"
                }
            ],
            "name": "transferOwnership",
            "outputs": [],
            "stateMutability": "nonpayable",
            "type": "function"
        },
        {
            "inputs": [
                {
                    "internalType": "uint256",
                    "name": "stakeId",
                    "type": "uint256"
                },
                {
                    "internalType": "uint256",
                    "name": "amount",
                    "type": "uint256"
                }
            ],
            "name": "withdraw",
            "outputs": [],
            "stateMutability": "nonpayable",
            "type": "function"
        },
        {
            "inputs": [
                {
                    "internalType": "uint256",
                    "name": "",
                    "type": "uint256"
                }
            ],
            "name": "yDistributes",
            "outputs": [
                {
                    "internalType": "uint256",
                    "name": "amount",
                    "type": "uint256"
                },
                {
                    "internalType": "uint256",
                    "name": "distributedAt",
                    "type": "uint256"
                }
            ],
            "stateMutability": "view",
            "type": "function"
        },
        {
            "inputs": [],
            "name": "yDistributionRatio",
            "outputs": [
                {
                    "internalType": "uint256",
                    "name": "",
                    "type": "uint256"
                }
            ],
            "stateMutability": "view",
            "type": "function"
        }
    ],
    "bytecode": "60806040523480156200001157600080fd5b50604051620046a8380380620046a8833981016040819052620000349162000375565b83838181816000908051906020019062000050929190620001ff565b50805162000066906001906020840190620001ff565b50505060006200007b6200014760201b60201c565b600680546001600160a01b0319166001600160a01b038316908117909155604051919250906000907f8be0079c531659141344cd1fd0a4f28419497f9722a3daafe3b4186f6b6457e0908290a350506001600b5550600c80546001600160a01b038085166001600160a01b031992831617909255600d80549284169290911691909117905542600e55620001116000336200014b565b6200013d7f97667070c54ef182b0f5858b034beac1b6f3089aa2d3188bb1e8929f4fa9b929336200014b565b5050505062000454565b3390565b6200015782826200015b565b5050565b6000828152600a602090815260408083206001600160a01b038516845290915290205460ff1662000157576000828152600a602090815260408083206001600160a01b03851684529091529020805460ff19166001179055620001bb3390565b6001600160a01b0316816001600160a01b0316837f2f8788117e7eff1d82e926ec794901d17c78024a50270940304540a733656f0d60405160405180910390a45050565b8280546200020d9062000401565b90600052602060002090601f0160209004810192826200023157600085556200027c565b82601f106200024c57805160ff19168380011785556200027c565b828001600101855582156200027c579182015b828111156200027c5782518255916020019190600101906200025f565b506200028a9291506200028e565b5090565b5b808211156200028a57600081556001016200028f565b80516001600160a01b0381168114620002bd57600080fd5b919050565b600082601f830112620002d3578081fd5b81516001600160401b0380821115620002f057620002f06200043e565b604051601f8301601f19908116603f011681019082821181831017156200031b576200031b6200043e565b8160405283815260209250868385880101111562000337578485fd5b8491505b838210156200035a57858201830151818301840152908201906200033b565b838211156200036b57848385830101525b9695505050505050565b600080600080608085870312156200038b578384fd5b84516001600160401b0380821115620003a2578586fd5b620003b088838901620002c2565b95506020870151915080821115620003c6578485fd5b50620003d587828801620002c2565b935050620003e660408601620002a5565b9150620003f660608601620002a5565b905092959194509250565b600181811c908216806200041657607f821691505b602082108114156200043857634e487b7160e01b600052602260045260246000fd5b50919050565b634e487b7160e01b600052604160045260246000fd5b61424480620004646000396000f3fe608060405234801561001057600080fd5b50600436106103985760003560e01c806386402362116101e9578063c89039c51161010f578063de1ac2fd116100ad578063f18876841161007c578063f18876841461081b578063f2fde38b1461082b578063f5b541a61461083e578063f7c618c11461085357600080fd5b8063de1ac2fd146107bb578063e4fc6b6d146107ce578063e985e9c5146107d6578063eae4c19f1461081257600080fd5b8063d547741f116100e9578063d547741f1461074f578063d5999a5c14610762578063d5a44f861461076c578063dc01f60d1461079b57600080fd5b8063c89039c514610720578063ca38f5ef14610733578063d4d7b19a1461073c57600080fd5b8063a22cb46511610187578063b6b55f2511610156578063b6b55f25146106d4578063b88d4fde146106e7578063c51330a2146106fa578063c87b56dd1461070d57600080fd5b8063a22cb46514610688578063ac8a584a1461069b578063ae169a50146106ae578063b532c9ed146106c157600080fd5b806391d14854116101c357806391d148541461065257806395d89b41146106655780639870d7fe1461066d578063a217fddf1461068057600080fd5b8063864023621461061b5780638da5cb5b1461062e57806390159a311461063f57600080fd5b806336568abe116102ce5780636352211e1161026c57806372fbeb501161023b57806372fbeb50146106005780637ac54f42146106085780637bc30dc51461061b578063839145401461062357600080fd5b80636352211e146105c957806370a08231146105dc578063714cff56146105ef578063715018a6146105f857600080fd5b806345a9c003116102a857806345a9c003146105705780634cea7a9014610583578063592920ec146105a357806362c06767146105b657600080fd5b806336568abe1461053757806342842e0e1461054a578063441a3e701461055d57600080fd5b80630c2eb4031161033b5780631e2720ff116103155780631e2720ff146104db57806323b872dd146104ee578063248a9ca3146105015780632f2ff15d1461052457600080fd5b80630c2eb403146104985780630ce72d6e146104ab5780631ac589f0146104b357600080fd5b806306fdde031161037757806306fdde0314610415578063081812fc1461042a578063095ea7b314610455578063098134821461046a57600080fd5b80627209601461039d57806301ffc9a7146103da578063038c0f77146103fd575b600080fd5b6103b06103ab366004613cdc565b610866565b604080516001600160a01b0390941684526020840192909252908201526060015b60405180910390f35b6103ed6103e8366004613d16565b6108a3565b60405190151581526020016103d1565b610407627a9b8081565b6040519081526020016103d1565b61041d6108b4565b6040516103d19190613ef4565b61043d610438366004613cdc565b610946565b6040516001600160a01b0390911681526020016103d1565b610468610463366004613c97565b6109d3565b005b61047d610478366004613cdc565b610ae9565b604080519384526020840192909252908201526060016103d1565b6104076104a6366004613b05565b610b76565b610407603281565b6104c66104c1366004613cdc565b610ca3565b604080519283526020830191909152016103d1565b6104686104e9366004613cdc565b610cd1565b6104686104fc366004613b51565b610d6e565b61040761050f366004613cdc565b6000908152600a602052604090206001015490565b610468610532366004613cf4565b610d9f565b610468610545366004613cf4565b610dc5565b610468610558366004613b51565b610e43565b61046861056b366004613d66565b610e5e565b6104c661057e366004613cdc565b610ed9565b610596610591366004613b05565b610ee9565b6040516103d19190613eb0565b6104076105b1366004613c97565b610f55565b6104686105c4366004613b51565b610f86565b61043d6105d7366004613cdc565b61108e565b6104076105ea366004613b05565b611105565b61040760075481565b61046861118c565b610407606481565b610407610616366004613d66565b611230565b610407601981565b6104076301e1338081565b6006546001600160a01b031661043d565b6104c661064d366004613cdc565b6113a8565b6103ed610660366004613cf4565b6113b8565b61041d6113e3565b61046861067b366004613b05565b6113f2565b610407600081565b610468610696366004613c61565b6114aa565b6104686106a9366004613b05565b61156f565b6104686106bc366004613cdc565b611625565b6103b06106cf366004613cdc565b61180e565b6104686106e2366004613cdc565b6118c5565b6104686106f5366004613b8c565b61193e565b610407610708366004613cdc565b611976565b61041d61071b366004613cdc565b611a82565b600c5461043d906001600160a01b031681565b6104076103e881565b6103ed61074a366004613b05565b611b5a565b61046861075d366004613cf4565b611b6d565b6104076228de8081565b61047d61077a366004613cdc565b60086020526000908152604090208054600182015460029092015490919083565b6104076107a9366004613b05565b60136020526000908152604090205481565b6103ed6107c9366004613b05565b611b93565b610468611bad565b6103ed6107e4366004613b1f565b6001600160a01b03918216600090815260056020908152604080832093909416825291909152205460ff1690565b610407600e5481565b61040768878678326eac90000081565b610468610839366004613b05565b611f57565b6104076000805160206141ef83398151915281565b600d5461043d906001600160a01b031681565b600f818154811061087657600080fd5b60009182526020909120600390910201805460018201546002909201546001600160a01b03909116925083565b60006108ae82612072565b92915050565b6060600080546108c39061411e565b80601f01602080910402602001604051908101604052809291908181526020018280546108ef9061411e565b801561093c5780601f106109115761010080835404028352916020019161093c565b820191906000526020600020905b81548152906001019060200180831161091f57829003601f168201915b5050505050905090565b600061095182612097565b6109b75760405162461bcd60e51b815260206004820152602c60248201527f4552433732313a20617070726f76656420717565727920666f72206e6f6e657860448201526b34b9ba32b73a103a37b5b2b760a11b60648201526084015b60405180910390fd5b506000908152600460205260409020546001600160a01b031690565b60006109de8261108e565b9050806001600160a01b0316836001600160a01b03161415610a4c5760405162461bcd60e51b815260206004820152602160248201527f4552433732313a20617070726f76616c20746f2063757272656e74206f776e656044820152603960f91b60648201526084016109ae565b336001600160a01b0382161480610a685750610a6881336107e4565b610ada5760405162461bcd60e51b815260206004820152603860248201527f4552433732313a20617070726f76652063616c6c6572206973206e6f74206f7760448201527f6e6572206e6f7220617070726f76656420666f7220616c6c000000000000000060648201526084016109ae565b610ae483836120b4565b505050565b6000806000610af784612097565b610b545760405162461bcd60e51b815260206004820152602860248201527f5374616b65546f6b656e236765745374616b65496e666f3a205354414b455f4e60448201526713d517d193d5539160c21b60648201526084016109ae565b5050506000908152600860205260409020805460018201546002909201549092565b6001600160a01b038116600090815260096020908152604080832080548251818502810185019093528083528493830182828015610bd357602002820191906000526020600020905b815481526020019060010190808311610bbf575b50505050509050600080600090505b8251811015610c9b57606460086000858481518110610c1157634e487b7160e01b600052603260045260246000fd5b602002602001015181526020019081526020016000206001015460086000868581518110610c4f57634e487b7160e01b600052603260045260246000fd5b6020026020010151815260200190815260200160002060000154610c7391906140a5565b610c7d9190614091565b610c879083614079565b915080610c9381614159565b915050610be2565b509392505050565b60128181548110610cb357600080fd5b60009182526020909120600290910201805460019091015490915082565b610ce96000805160206141ef833981519152336113b8565b610d055760405162461bcd60e51b81526004016109ae90613ff3565b60008111610d615760405162461bcd60e51b8152602060048201526024808201527f5374616b65506f6f6c236465706f7369745265776172643a205a45524f5f414d60448201526313d5539560e21b60648201526084016109ae565b610d6b3382612122565b50565b610d783382612235565b610d945760405162461bcd60e51b81526004016109ae90613fa2565b610ae483838361231f565b6000828152600a6020526040902060010154610dbb81336124bf565b610ae48383612523565b6001600160a01b0381163314610e355760405162461bcd60e51b815260206004820152602f60248201527f416363657373436f6e74726f6c3a2063616e206f6e6c792072656e6f756e636560448201526e103937b632b9903337b91039b2b63360891b60648201526084016109ae565b610e3f82826125a9565b5050565b610ae48383836040518060200160405280600081525061193e565b68878678326eac900000811015610ece5760405162461bcd60e51b815260206004820152602e60248201527f5374616b65506f6f6c2377697468647261773a20554e4445525f4d494e494d5560448201526d1357d4d51052d157d05353d5539560921b60648201526084016109ae565b610e3f338383612610565b60118181548110610cb357600080fd5b6001600160a01b038116600090815260096020908152604091829020805483518184028101840190945280845260609392830182828015610f4957602002820191906000526020600020905b815481526020019060010190808311610f35575b50505050509050919050565b60096020528160005260406000208181548110610f7157600080fd5b90600052602060002001600091509150505481565b610f9e6000805160206141ef833981519152336113b8565b610fba5760405162461bcd60e51b81526004016109ae90613ff3565b60405163a9059cbb60e01b81526001600160a01b0383811660048301526024820183905284919082169063a9059cbb90604401602060405180830381600087803b15801561100757600080fd5b505af115801561101b573d6000803e3d6000fd5b505050506040513d601f19601f8201168201806040525081019061103f9190613cc0565b50604080516001600160a01b0386811682526020820185905285169133917fddb9e887767e767a0e6a62c15b95f9f09e40e04427f78be916fdf478da1dbc23910160405180910390a350505050565b6000818152600260205260408120546001600160a01b0316806108ae5760405162461bcd60e51b815260206004820152602960248201527f4552433732313a206f776e657220717565727920666f72206e6f6e657869737460448201526832b73a103a37b5b2b760b91b60648201526084016109ae565b60006001600160a01b0382166111705760405162461bcd60e51b815260206004820152602a60248201527f4552433732313a2062616c616e636520717565727920666f7220746865207a65604482015269726f206164647265737360b01b60648201526084016109ae565b506001600160a01b031660009081526003602052604090205490565b6006546001600160a01b031633146111e65760405162461bcd60e51b815260206004820181905260248201527f4f776e61626c653a2063616c6c6572206973206e6f7420746865206f776e657260448201526064016109ae565b6006546040516000916001600160a01b0316907f8be0079c531659141344cd1fd0a4f28419497f9722a3daafe3b4186f6b6457e0908390a3600680546001600160a01b0319169055565b600061124a6000805160206141ef833981519152336113b8565b6112665760405162461bcd60e51b81526004016109ae90613ff3565b8183106112cf5760405162461bcd60e51b815260206004820152603160248201527f5374616b65506f6f6c236765745265776172644465706f73697453756d3a20496044820152704e56414c49445f444154455f52414e474560781b60648201526084016109ae565b6000805b600f54811015610c9b5784600f82815481106112ff57634e487b7160e01b600052603260045260246000fd5b90600052602060002090600302016002015410158015611350575083600f828154811061133c57634e487b7160e01b600052603260045260246000fd5b906000526020600020906003020160020154105b1561139657600f818154811061137657634e487b7160e01b600052603260045260246000fd5b906000526020600020906003020160010154826113939190614079565b91505b806113a081614159565b9150506112d3565b60108181548110610cb357600080fd5b6000918252600a602090815260408084206001600160a01b0393909316845291905290205460ff1690565b6060600180546108c39061411e565b6113fd6000336113b8565b6114195760405162461bcd60e51b81526004016109ae90613f59565b6114316000805160206141ef833981519152826113b8565b156114925760405162461bcd60e51b815260206004820152602b60248201527f5374616b65506f6f6c236164644f70657261746f723a20414c52454144595f4f60448201526a455241544f525f524f4c4560a81b60648201526084016109ae565b610d6b6000805160206141ef83398151915282610d9f565b6001600160a01b0382163314156115035760405162461bcd60e51b815260206004820152601960248201527f4552433732313a20617070726f766520746f2063616c6c65720000000000000060448201526064016109ae565b3360008181526005602090815260408083206001600160a01b03871680855290835292819020805460ff191686151590811790915590519081529192917f17307eab39ab6107e8899845ad3d59bd9653f200f220920489ca2b5937696c31910160405180910390a35050565b61157a6000336113b8565b6115965760405162461bcd60e51b81526004016109ae90613f59565b6115ae6000805160206141ef833981519152826113b8565b61160d5760405162461bcd60e51b815260206004820152602a60248201527f5374616b65506f6f6c2372656d6f76654f70657261746f723a204e4f5f4f50456044820152695241544f525f524f4c4560b01b60648201526084016109ae565b610d6b6000805160206141ef83398151915282611b6d565b6002600b5414156116485760405162461bcd60e51b81526004016109ae90614042565b6002600b5561165633611b5a565b6116b75760405162461bcd60e51b815260206004820152602c60248201527f5374616b65506f6f6c23636c61696d5265776172643a2043414c4c45525f4e4f60448201526b2faa27a5a2a72fa7aba722a960a11b60648201526084016109ae565b336000908152601360205260409020548111156117285760405162461bcd60e51b815260206004820152602960248201527f5374616b65506f6f6c23636c61696d5265776172643a20494e53554646494349604482015268454e545f46554e445360b81b60648201526084016109ae565b33600090815260136020526040812080548392906117479084906140c4565b9091555050600d5460405163a9059cbb60e01b8152336004820152602481018390526001600160a01b039091169063a9059cbb90604401602060405180830381600087803b15801561179857600080fd5b505af11580156117ac573d6000803e3d6000fd5b505050506040513d601f19601f820116820180604052508101906117d09190613cc0565b5060405181815233907f106f923f993c2149d49b4255ff723acafa1f2d94393f561d3eda32ae348f72419060200160405180910390a2506001600b55565b6000806000600f848154811061183457634e487b7160e01b600052603260045260246000fd5b6000918252602090912060039091020154600f80546001600160a01b03909216918690811061187357634e487b7160e01b600052603260045260246000fd5b906000526020600020906003020160010154600f86815481106118a657634e487b7160e01b600052603260045260246000fd5b9060005260206000209060030201600201549250925092509193909250565b68878678326eac9000008110156119345760405162461bcd60e51b815260206004820152602d60248201527f5374616b65506f6f6c236465706f7369743a20554e4445525f4d494e494d554d60448201526c17d4d51052d157d05353d55395609a1b60648201526084016109ae565b610d6b33826127e3565b6119483383612235565b6119645760405162461bcd60e51b81526004016109ae90613fa2565b6119708484848461293a565b50505050565b6000428211156119e05760405162461bcd60e51b815260206004820152602f60248201527f5374616b65546f6b656e23676574456c696769626c655374616b65416d6f756e60448201526e743a204e4f5f504153545f4441544560881b60648201526084016109ae565b600060015b6007548111611a7b576119f781612097565b15611a69576000818152600860209081526040918290208251606081018452815481526001820154928101929092526002015491810182905290851015611a3e5750611a7b565b60208101518151606491611a51916140a5565b611a5b9190614091565b611a659084614079565b9250505b80611a7381614159565b9150506119e5565b5092915050565b6060611a8d82612097565b611af15760405162461bcd60e51b815260206004820152602f60248201527f4552433732314d657461646174613a2055524920717565727920666f72206e6f60448201526e3732bc34b9ba32b73a103a37b5b2b760891b60648201526084016109ae565b6000611b0860408051602081019091526000815290565b90506000815111611b285760405180602001604052806000815250611b53565b80611b328461296d565b604051602001611b43929190613dcf565b6040516020818303038152906040525b9392505050565b600080611b6683611105565b1192915050565b6000828152600a6020526040902060010154611b8981336124bf565b610ae483836125a9565b60006108ae6000805160206141ef833981519152836113b8565b611bc56000805160206141ef833981519152336113b8565b611be15760405162461bcd60e51b81526004016109ae90613ff3565b6010546000908190611bf757600e549150611c3a565b60108054611c07906001906140c4565b81548110611c2557634e487b7160e01b600052603260045260246000fd5b90600052602060002090600202016001015491505b42611c486228de8084614079565b11611d0a57611c58826019612a87565b6040805180820182528281524260208083018281526010805460018101825560009190915293517f1b6847dc741a1b0cd08d278845f9d819d87b734759afb55fe2de5cb82a9ae672600290950294850155517f1b6847dc741a1b0cd08d278845f9d819d87b734759afb55fe2de5cb82a9ae673909301929092558251848152918201529192507fb389f1bb9ef25ab3eef98c9e112af6e62f9eee453d7f4ef578958e5654aa67c5910160405180910390a15b601154611d1b57600e549150611d5e565b60118054611d2b906001906140c4565b81548110611d4957634e487b7160e01b600052603260045260246000fd5b90600052602060002090600202016001015491505b42611d6c627a9b8084614079565b11611e2e57611d7c826032612a87565b6040805180820182528281524260208083018281526011805460018101825560009190915293517f31ecc21a745e3968a04e9570e4425bc18fa8019c68028196b546d1669c200c68600290950294850155517f31ecc21a745e3968a04e9570e4425bc18fa8019c68028196b546d1669c200c69909301929092558251848152918201529192507fcc9d8da9c6c645127fc9e5999652125e6bbe487daa1b38d751b91cae854c5d31910160405180910390a15b601254611e3f57600e549150611e82565b60128054611e4f906001906140c4565b81548110611e6d57634e487b7160e01b600052603260045260246000fd5b90600052602060002090600202016001015491505b42611e916301e1338084614079565b11610e3f57611ea1826019612a87565b6040805180820182528281524260208083018281526012805460018101825560009190915293517fbb8a6a4669ba250d26cd7a459eca9d215f8307e33aebe50379bc5a3617ec3444600290950294850155517fbb8a6a4669ba250d26cd7a459eca9d215f8307e33aebe50379bc5a3617ec3445909301929092558251848152918201529192507f1059f65b3468ee24c9db225cdf4aa43e8a8c3f473a09b46496b0a7f8cc745ae591015b60405180910390a15050565b6006546001600160a01b03163314611fb15760405162461bcd60e51b815260206004820181905260248201527f4f776e61626c653a2063616c6c6572206973206e6f7420746865206f776e657260448201526064016109ae565b6001600160a01b0381166120165760405162461bcd60e51b815260206004820152602660248201527f4f776e61626c653a206e6577206f776e657220697320746865207a65726f206160448201526564647265737360d01b60648201526084016109ae565b6006546040516001600160a01b038084169216907f8be0079c531659141344cd1fd0a4f28419497f9722a3daafe3b4186f6b6457e090600090a3600680546001600160a01b0319166001600160a01b0392909216919091179055565b60006001600160e01b03198216637965db0b60e01b14806108ae57506108ae82612c8a565b6000908152600260205260409020546001600160a01b0316151590565b600081815260046020526040902080546001600160a01b0319166001600160a01b03841690811790915581906120e98261108e565b6001600160a01b03167f8c5be1e5ebec7d5bd14f71427d1e84f3dd0314c0f7b2291e5b200ac8c7c3b92560405160405180910390a45050565b600d5461213a906001600160a01b0316833084612cda565b604080516060810182526001600160a01b03848116808352602080840186815242858701908152600f805460018101825560009190915295517f8d1108e10bcb7c27dddfc02ed9d693a074039d026cf4ea4240b40f7d581ac802600390970296870180546001600160a01b0319169190961617909455517f8d1108e10bcb7c27dddfc02ed9d693a074039d026cf4ea4240b40f7d581ac80385015591517f8d1108e10bcb7c27dddfc02ed9d693a074039d026cf4ea4240b40f7d581ac80490930192909255915183815290917f7dbc080e4530c8bcf265eb5c9a35ae096ca1eb607b7e802b96581ef4c5e1a703910160405180910390a25050565b600061224082612097565b6122a15760405162461bcd60e51b815260206004820152602c60248201527f4552433732313a206f70657261746f7220717565727920666f72206e6f6e657860448201526b34b9ba32b73a103a37b5b2b760a11b60648201526084016109ae565b60006122ac8361108e565b9050806001600160a01b0316846001600160a01b031614806122e75750836001600160a01b03166122dc84610946565b6001600160a01b0316145b8061231757506001600160a01b0380821660009081526005602090815260408083209388168352929052205460ff165b949350505050565b826001600160a01b03166123328261108e565b6001600160a01b03161461239a5760405162461bcd60e51b815260206004820152602960248201527f4552433732313a207472616e73666572206f6620746f6b656e2074686174206960448201526839903737ba1037bbb760b91b60648201526084016109ae565b6001600160a01b0382166123fc5760405162461bcd60e51b8152602060048201526024808201527f4552433732313a207472616e7366657220746f20746865207a65726f206164646044820152637265737360e01b60648201526084016109ae565b6124076000826120b4565b6001600160a01b03831660009081526003602052604081208054600192906124309084906140c4565b90915550506001600160a01b038216600090815260036020526040812080546001929061245e908490614079565b909155505060008181526002602052604080822080546001600160a01b0319166001600160a01b0386811691821790925591518493918716917fddf252ad1be2c89b69c2b068fc378daa952ba7f163c4a11628f55a4df523b3ef91a4505050565b6124c982826113b8565b610e3f576124e1816001600160a01b03166014612d34565b6124ec836020612d34565b6040516020016124fd929190613dfe565b60408051601f198184030181529082905262461bcd60e51b82526109ae91600401613ef4565b61252d82826113b8565b610e3f576000828152600a602090815260408083206001600160a01b03851684529091529020805460ff191660011790556125653390565b6001600160a01b0316816001600160a01b0316837f2f8788117e7eff1d82e926ec794901d17c78024a50270940304540a733656f0d60405160405180910390a45050565b6125b382826113b8565b15610e3f576000828152600a602090815260408083206001600160a01b0385168085529252808320805460ff1916905551339285917ff6391f5c32d9c69d2a47ea670b442974b53935d1edc7fd64eb21e047a839171b9190a45050565b6002600b5414156126335760405162461bcd60e51b81526004016109ae90614042565b6002600b556001600160a01b03831661264b8361108e565b6001600160a01b0316146126ad5760405162461bcd60e51b815260206004820152602360248201527f5374616b65506f6f6c235f77697468647261773a204e4f5f5354414b455f4f576044820152622722a960e91b60648201526084016109ae565b6126b78282612f16565b600c5460405163a9059cbb60e01b81526001600160a01b038581166004830152602482018490529091169063a9059cbb90604401602060405180830381600087803b15801561270557600080fd5b505af1158015612719573d6000803e3d6000fd5b505050506040513d601f19601f8201168201806040525081019061273d9190613cc0565b6127955760405162461bcd60e51b8152602060048201526024808201527f5374616b65506f6f6c235f77697468647261773a205452414e534645525f46416044820152631253115160e21b60648201526084016109ae565b81836001600160a01b03167f92ccf450a286a957af52509bc1c9939d1a6a481783e142e41e2499f0bb66ebc6836040516127d191815260200190565b60405180910390a350506001600b5550565b6002600b5414156128065760405162461bcd60e51b81526004016109ae90614042565b6002600b556000612818838342613089565b600c546040516323b872dd60e01b81526001600160a01b038681166004830152306024830152604482018690529293509116906323b872dd90606401602060405180830381600087803b15801561286e57600080fd5b505af1158015612882573d6000803e3d6000fd5b505050506040513d601f19601f820116820180604052508101906128a69190613cc0565b6128fe5760405162461bcd60e51b815260206004820152602360248201527f5374616b65506f6f6c235f6465706f7369743a205452414e534645525f46414960448201526213115160ea1b60648201526084016109ae565b80836001600160a01b03167f73a19dd210f1a7f902193214c0ee91dd35ee5b4d920cba8d519eca65a7b488ca846040516127d191815260200190565b61294584848461231f565b6129518484848461315f565b6119705760405162461bcd60e51b81526004016109ae90613f07565b6060816129915750506040805180820190915260018152600360fc1b602082015290565b8160005b81156129bb57806129a581614159565b91506129b49050600a83614091565b9150612995565b60008167ffffffffffffffff8111156129e457634e487b7160e01b600052604160045260246000fd5b6040519080825280601f01601f191660200182016040528015612a0e576020820181803683370190505b5090505b841561231757612a236001836140c4565b9150612a30600a86614174565b612a3b906030614079565b60f81b818381518110612a5e57634e487b7160e01b600052603260045260246000fd5b60200101906001600160f81b031916908160001a905350612a80600a86614091565b9450612a12565b60006060806000806000612a9a8861326c565b91965094509250606487612aae8a42611230565b612ab891906140a5565b612ac29190614091565b915060005b83811015612c7e576000868281518110612af157634e487b7160e01b600052603260045260246000fd5b6020026020010151905060006103e8878481518110612b2057634e487b7160e01b600052603260045260246000fd5b602002602001015186612b3391906140a5565b612b3d9190614091565b600d546040516370a0823160e01b81523060048201529192506001600160a01b0316906370a082319060240160206040518083038186803b158015612b8157600080fd5b505afa158015612b95573d6000803e3d6000fd5b505050506040513d601f19601f82011682018060405250810190612bb99190613d4e565b811115612c1a5760405162461bcd60e51b815260206004820152602960248201527f5374616b65506f6f6c235f646973747269627574653a20494e53554646494349604482015268454e542046554e445360b81b60648201526084016109ae565b8060136000612c288561108e565b6001600160a01b03166001600160a01b031681526020019081526020016000206000828254612c579190614079565b90915550612c6790508185614079565b935050508080612c7690614159565b915050612ac7565b50979650505050505050565b60006001600160e01b031982166380ac58cd60e01b1480612cbb57506001600160e01b03198216635b5e139f60e01b145b806108ae57506301ffc9a760e01b6001600160e01b03198316146108ae565b604080516001600160a01b0385811660248301528416604482015260648082018490528251808303909101815260849091019091526020810180516001600160e01b03166323b872dd60e01b1790526119709085906134e6565b60606000612d438360026140a5565b612d4e906002614079565b67ffffffffffffffff811115612d7457634e487b7160e01b600052604160045260246000fd5b6040519080825280601f01601f191660200182016040528015612d9e576020820181803683370190505b509050600360fc1b81600081518110612dc757634e487b7160e01b600052603260045260246000fd5b60200101906001600160f81b031916908160001a905350600f60fb1b81600181518110612e0457634e487b7160e01b600052603260045260246000fd5b60200101906001600160f81b031916908160001a9053506000612e288460026140a5565b612e33906001614079565b90505b6001811115612ec7576f181899199a1a9b1b9c1cb0b131b232b360811b85600f1660108110612e7557634e487b7160e01b600052603260045260246000fd5b1a60f81b828281518110612e9957634e487b7160e01b600052603260045260246000fd5b60200101906001600160f81b031916908160001a90535060049490941c93612ec081614107565b9050612e36565b508315611b535760405162461bcd60e51b815260206004820181905260248201527f537472696e67733a20686578206c656e67746820696e73756666696369656e7460448201526064016109ae565b612f1f82612097565b612f845760405162461bcd60e51b815260206004820152603060248201527f5374616b65546f6b656e235f64656372656173655374616b65416d6f756e743a60448201526f0814d51052d157d393d517d193d5539160821b60648201526084016109ae565b6000828152600860205260409020548111156130085760405162461bcd60e51b815260206004820152603a60248201527f5374616b65546f6b656e235f64656372656173655374616b65416d6f756e743a60448201527f20494e53554646494349454e545f5354414b455f414d4f554e5400000000000060648201526084016109ae565b60008281526008602052604090205481141561302757610e3f826135b8565b6000828152600860205260409020546130409082613763565b6000838152600860209081526040918290209290925580518481529182018390527f9ce0fe3a2c7c141618ca6eb14273c7863eb6cfb1cdbfe0cb511d8006b1c1841a9101611f4b565b60008083116130da5760405162461bcd60e51b815260206004820181905260248201527f5374616b65546f6b656e235f6d696e743a20494e56414c49445f414d4f554e5460448201526064016109ae565b600780549060006130ea83614159565b919050555060006130f961376f565b9050613107856007546137ab565b6007805460009081526008602090815260408083208881556001808201969096556002018790556001600160a01b03891683526009825282208354815495860182559083529120909201919091555490509392505050565b60006001600160a01b0384163b1561326157604051630a85bd0160e11b81526001600160a01b0385169063150b7a02906131a3903390899088908890600401613e73565b602060405180830381600087803b1580156131bd57600080fd5b505af19250505080156131ed575060408051601f3d908101601f191682019092526131ea91810190613d32565b60015b613247573d80801561321b576040519150601f19603f3d011682016040523d82523d6000602084013e613220565b606091505b50805161323f5760405162461bcd60e51b81526004016109ae90613f07565b805181602001fd5b6001600160e01b031916630a85bd0160e11b149050612317565b506001949350505050565b6060806000428411156132d75760405162461bcd60e51b815260206004820152602d60248201527f5374616b65506f6f6c235f63616c635374616b65436c61696d5368617265733a60448201526c204e4f5f504153545f4441544560981b60648201526084016109ae565b600060075467ffffffffffffffff81111561330257634e487b7160e01b600052604160045260246000fd5b60405190808252806020026020018201604052801561332b578160200160208202803683370190505b509050600060075467ffffffffffffffff81111561335957634e487b7160e01b600052604160045260246000fd5b604051908082528060200260200182016040528015613382578160200160208202803683370190505b50905060008060015b60075481116134305761339d81612097565b1561341e5760008060006133b084610ae9565b9250925092506000831180156133c657508b8111155b1561341a576133d582846140a5565b6133df9086614079565b94508388876133ed81614159565b98508151811061340d57634e487b7160e01b600052603260045260246000fd5b6020026020010181815250505b5050505b8061342881614159565b91505061338b565b5060005b828110156134d85760008061346f87848151811061346257634e487b7160e01b600052603260045260246000fd5b6020026020010151610ae9565b509092509050836103e861348383856140a5565b61348d91906140a5565b6134979190614091565b8684815181106134b757634e487b7160e01b600052603260045260246000fd5b602002602001018181525050505080806134d090614159565b915050613434565b509297919650945092505050565b600061353b826040518060400160405280602081526020017f5361666545524332303a206c6f772d6c6576656c2063616c6c206661696c6564815250856001600160a01b03166138de9092919063ffffffff16565b805190915015610ae457808060200190518101906135599190613cc0565b610ae45760405162461bcd60e51b815260206004820152602a60248201527f5361666545524332303a204552433230206f7065726174696f6e20646964206e6044820152691bdd081cdd58d8d9595960b21b60648201526084016109ae565b6135c181612097565b6136175760405162461bcd60e51b815260206004820152602160248201527f5374616b65546f6b656e235f6275726e3a205354414b455f4e4f545f464f554e6044820152601160fa1b60648201526084016109ae565b60006136228261108e565b905061362d826138ed565b6000828152600860209081526040808320838155600181018490556002018390556001600160a01b038416835260099091528120905b8154811015611970578382828154811061368d57634e487b7160e01b600052603260045260246000fd5b906000526020600020015414156137515781546136ac906001906140c4565b811461371857815482906136c2906001906140c4565b815481106136e057634e487b7160e01b600052603260045260246000fd5b906000526020600020015482828154811061370b57634e487b7160e01b600052603260045260246000fd5b6000918252602090912001555b8180548061373657634e487b7160e01b600052603160045260246000fd5b60019003818190600052602060002001600090559055611970565b8061375b81614159565b915050613663565b6000611b5382846140c4565b600061012c60075410156137835750607890565b60075461012c1115801561379a5750610fa0600754105b156137a55750606e90565b50606490565b6001600160a01b0382166138015760405162461bcd60e51b815260206004820181905260248201527f4552433732313a206d696e7420746f20746865207a65726f206164647265737360448201526064016109ae565b61380a81612097565b156138575760405162461bcd60e51b815260206004820152601c60248201527f4552433732313a20746f6b656e20616c7265616479206d696e7465640000000060448201526064016109ae565b6001600160a01b0382166000908152600360205260408120805460019290613880908490614079565b909155505060008181526002602052604080822080546001600160a01b0319166001600160a01b03861690811790915590518392907fddf252ad1be2c89b69c2b068fc378daa952ba7f163c4a11628f55a4df523b3ef908290a45050565b60606123178484600085613988565b60006138f88261108e565b90506139056000836120b4565b6001600160a01b038116600090815260036020526040812080546001929061392e9084906140c4565b909155505060008281526002602052604080822080546001600160a01b0319169055518391906001600160a01b038416907fddf252ad1be2c89b69c2b068fc378daa952ba7f163c4a11628f55a4df523b3ef908390a45050565b6060824710156139e95760405162461bcd60e51b815260206004820152602660248201527f416464726573733a20696e73756666696369656e742062616c616e636520666f6044820152651c8818d85b1b60d21b60648201526084016109ae565b843b613a375760405162461bcd60e51b815260206004820152601d60248201527f416464726573733a2063616c6c20746f206e6f6e2d636f6e747261637400000060448201526064016109ae565b600080866001600160a01b03168587604051613a539190613db3565b60006040518083038185875af1925050503d8060008114613a90576040519150601f19603f3d011682016040523d82523d6000602084013e613a95565b606091505b5091509150613aa5828286613ab0565b979650505050505050565b60608315613abf575081611b53565b825115613acf5782518084602001fd5b8160405162461bcd60e51b81526004016109ae9190613ef4565b80356001600160a01b0381168114613b0057600080fd5b919050565b600060208284031215613b16578081fd5b611b5382613ae9565b60008060408385031215613b31578081fd5b613b3a83613ae9565b9150613b4860208401613ae9565b90509250929050565b600080600060608486031215613b65578081fd5b613b6e84613ae9565b9250613b7c60208501613ae9565b9150604084013590509250925092565b60008060008060808587031215613ba1578081fd5b613baa85613ae9565b9350613bb860208601613ae9565b925060408501359150606085013567ffffffffffffffff80821115613bdb578283fd5b818701915087601f830112613bee578283fd5b813581811115613c0057613c006141b4565b604051601f8201601f19908116603f01168101908382118183101715613c2857613c286141b4565b816040528281528a6020848701011115613c40578586fd5b82602086016020830137918201602001949094529598949750929550505050565b60008060408385031215613c73578182fd5b613c7c83613ae9565b91506020830135613c8c816141ca565b809150509250929050565b60008060408385031215613ca9578182fd5b613cb283613ae9565b946020939093013593505050565b600060208284031215613cd1578081fd5b8151611b53816141ca565b600060208284031215613ced578081fd5b5035919050565b60008060408385031215613d06578182fd5b82359150613b4860208401613ae9565b600060208284031215613d27578081fd5b8135611b53816141d8565b600060208284031215613d43578081fd5b8151611b53816141d8565b600060208284031215613d5f578081fd5b5051919050565b60008060408385031215613d78578182fd5b50508035926020909101359150565b60008151808452613d9f8160208601602086016140db565b601f01601f19169290920160200192915050565b60008251613dc58184602087016140db565b9190910192915050565b60008351613de18184602088016140db565b835190830190613df58183602088016140db565b01949350505050565b7f416363657373436f6e74726f6c3a206163636f756e7420000000000000000000815260008351613e368160178501602088016140db565b7001034b99036b4b9b9b4b733903937b6329607d1b6017918401918201528351613e678160288401602088016140db565b01602801949350505050565b6001600160a01b0385811682528416602082015260408101839052608060608201819052600090613ea690830184613d87565b9695505050505050565b6020808252825182820181905260009190848201906040850190845b81811015613ee857835183529284019291840191600101613ecc565b50909695505050505050565b602081526000611b536020830184613d87565b60208082526032908201527f4552433732313a207472616e7366657220746f206e6f6e20455243373231526560408201527131b2b4bb32b91034b6b83632b6b2b73a32b960711b606082015260800190565b60208082526029908201527f5374616b65506f6f6c236f6e6c7941646d696e3a2043414c4c45525f4e4f5f41604082015268444d494e5f524f4c4560b81b606082015260800190565b60208082526031908201527f4552433732313a207472616e736665722063616c6c6572206973206e6f74206f6040820152701ddb995c881b9bdc88185c1c1c9bdd9959607a1b606082015260800190565b6020808252602f908201527f5374616b65506f6f6c236f6e6c794f70657261746f723a2043414c4c45525f4e60408201526e4f5f4f50455241544f525f524f4c4560881b606082015260800190565b6020808252601f908201527f5265656e7472616e637947756172643a207265656e7472616e742063616c6c00604082015260600190565b6000821982111561408c5761408c614188565b500190565b6000826140a0576140a061419e565b500490565b60008160001904831182151516156140bf576140bf614188565b500290565b6000828210156140d6576140d6614188565b500390565b60005b838110156140f65781810151838201526020016140de565b838111156119705750506000910152565b60008161411657614116614188565b506000190190565b600181811c9082168061413257607f821691505b6020821081141561415357634e487b7160e01b600052602260045260246000fd5b50919050565b600060001982141561416d5761416d614188565b5060010190565b6000826141835761418361419e565b500690565b634e487b7160e01b600052601160045260246000fd5b634e487b7160e01b600052601260045260246000fd5b634e487b7160e01b600052604160045260246000fd5b8015158114610d6b57600080fd5b6001600160e01b031981168114610d6b57600080fdfe97667070c54ef182b0f5858b034beac1b6f3089aa2d3188bb1e8929f4fa9b929a2646970667358221220e9d2690c5cd91847113be4fcbf90b5f084b1c8a826d6b6ebb5026cc395ddf65864736f6c63430008040033",
    "sourcePath": "e:/Works/SolidityWorks/ido/ido-contracts/contracts/staking/StakePool.sol",
    "compiler": {
        "name": "solc",
        "version": "0.8.4+commit.c7e474f2"
    },
    "functionHashes": {
        "DEFAULT_ADMIN_ROLE()": "a217fddf",
        "MONTH()": "d5999a5c",
        "OPERATOR_ROLE()": "f5b541a6",
        "QUARTER()": "038c0f77",
        "YEAR()": "83914540",
        "addOperator(address)": "9870d7fe",
        "approve(address,uint256)": "095ea7b3",
        "balanceOf(address)": "70a08231",
        "checkOperator(address)": "de1ac2fd",
        "claimReward(uint256)": "ae169a50",
        "claimableRewards(address)": "dc01f60d",
        "deployedAt()": "eae4c19f",
        "deposit(uint256)": "b6b55f25",
        "depositReward(uint256)": "1e2720ff",
        "depositToken()": "c89039c5",
        "distribute()": "e4fc6b6d",
        "getApproved(uint256)": "081812fc",
        "getEligibleStakeAmount(uint256)": "c51330a2",
        "getRewardDeposit(uint256)": "b532c9ed",
        "getRewardDepositSum(uint256,uint256)": "7ac54f42",
        "getRoleAdmin(bytes32)": "248a9ca3",
        "getStakeAmount(address)": "0c2eb403",
        "getStakeInfo(uint256)": "09813482",
        "getStakeTokenIds(address)": "4cea7a90",
        "grantRole(bytes32,address)": "2f2ff15d",
        "hasRole(bytes32,address)": "91d14854",
        "isApprovedForAll(address,address)": "e985e9c5",
        "isHolder(address)": "d4d7b19a",
        "mDistributes(uint256)": "90159a31",
        "mDistributionRatio()": "7bc30dc5",
        "minStakeAmount()": "f1887684",
        "multiplierDenominator()": "72fbeb50",
        "name()": "06fdde03",
        "owner()": "8da5cb5b",
        "ownerOf(uint256)": "6352211e",
        "qDistributes(uint256)": "45a9c003",
        "qDistributionRatio()": "0ce72d6e",
        "removeOperator(address)": "ac8a584a",
        "renounceOwnership()": "715018a6",
        "renounceRole(bytes32,address)": "36568abe",
        "revokeRole(bytes32,address)": "d547741f",
        "rewardDeposits(uint256)": "00720960",
        "rewardToken()": "f7c618c1",
        "sClaimShareDenominator()": "ca38f5ef",
        "safeTransferFrom(address,address,uint256)": "42842e0e",
        "safeTransferFrom(address,address,uint256,bytes)": "b88d4fde",
        "setApprovalForAll(address,bool)": "a22cb465",
        "stakerIds(address,uint256)": "592920ec",
        "stakes(uint256)": "d5a44f86",
        "supportsInterface(bytes4)": "01ffc9a7",
        "sweep(address,address,uint256)": "62c06767",
        "symbol()": "95d89b41",
        "tokenIds()": "714cff56",
        "tokenURI(uint256)": "c87b56dd",
        "transferFrom(address,address,uint256)": "23b872dd",
        "transferOwnership(address)": "f2fde38b",
        "withdraw(uint256,uint256)": "441a3e70",
        "yDistributes(uint256)": "1ac589f0",
        "yDistributionRatio()": "86402362"
    },
    "gasEstimates": {
        "creation": {
            "codeDepositCost": "3392800",
            "executionCost": "infinite",
            "totalCost": "infinite"
        },
        "external": {
            "DEFAULT_ADMIN_ROLE()": "329",
            "MONTH()": "284",
            "OPERATOR_ROLE()": "infinite",
            "QUARTER()": "309",
            "YEAR()": "328",
            "addOperator(address)": "infinite",
            "approve(address,uint256)": "infinite",
            "balanceOf(address)": "1379",
            "checkOperator(address)": "infinite",
            "claimReward(uint256)": "infinite",
            "claimableRewards(address)": "1352",
            "deployedAt()": "1128",
            "deposit(uint256)": "infinite",
            "depositReward(uint256)": "infinite",
            "depositToken()": "1105",
            "distribute()": "infinite",
            "getApproved(uint256)": "2222",
            "getEligibleStakeAmount(uint256)": "infinite",
            "getRewardDeposit(uint256)": "5635",
            "getRewardDepositSum(uint256,uint256)": "infinite",
            "getRoleAdmin(bytes32)": "1256",
            "getStakeAmount(address)": "infinite",
            "getStakeInfo(uint256)": "3906",
            "getStakeTokenIds(address)": "infinite",
            "grantRole(bytes32,address)": "infinite",
            "hasRole(bytes32,address)": "1433",
            "isApprovedForAll(address,address)": "infinite",
            "isHolder(address)": "1453",
            "mDistributes(uint256)": "2944",
            "mDistributionRatio()": "306",
            "minStakeAmount()": "261",
            "multiplierDenominator()": "262",
            "name()": "infinite",
            "owner()": "1122",
            "ownerOf(uint256)": "1324",
            "qDistributes(uint256)": "2899",
            "qDistributionRatio()": "286",
            "removeOperator(address)": "infinite",
            "renounceOwnership()": "24296",
            "renounceRole(bytes32,address)": "24370",
            "revokeRole(bytes32,address)": "infinite",
            "rewardDeposits(uint256)": "3759",
            "rewardToken()": "1169",
            "sClaimShareDenominator()": "285",
            "safeTransferFrom(address,address,uint256)": "infinite",
            "safeTransferFrom(address,address,uint256,bytes)": "infinite",
            "setApprovalForAll(address,bool)": "23325",
            "stakerIds(address,uint256)": "2256",
            "stakes(uint256)": "2924",
            "supportsInterface(bytes4)": "infinite",
            "sweep(address,address,uint256)": "infinite",
            "symbol()": "infinite",
            "tokenIds()": "1107",
            "tokenURI(uint256)": "infinite",
            "transferFrom(address,address,uint256)": "infinite",
            "transferOwnership(address)": "24488",
            "withdraw(uint256,uint256)": "infinite",
            "yDistributes(uint256)": "2944",
            "yDistributionRatio()": "264"
        },
        "internal": {
            "_calcStakeClaimShares(uint256)": "infinite",
            "_deposit(address,uint256)": "infinite",
            "_depositReward(address,uint256)": "infinite",
            "_distribute(uint256,uint256)": "infinite",
            "_withdraw(address,uint256,uint256)": "infinite"
        }
    }
}